:020000040800F2
:1000000000C00020D93200085128000853280008F9
:10001000552800085728000859280008000000004B
:100020000000000000000000000000005B28000845
:100030005D280008000000005F2800086128000813
:100040002133000821330008213300082133000840
:100050002133000821330008213300082133000830
:100060002133000821330008213300082133000820
:100070002133000821330008692800087928000886
:100080002133000821330008213300082133000800
:1000900021330008213300082133000821330008F0
:1000A00021330008213300082133000821330008E0
:1000B00021330008213300082133000821330008D0
:1000C00021330008213300082133000821330008C0
:1000D0002133000889280008213300082133000853
:1000E00021330008213300082133000821330008A0
:1000F0002133000821330008213300082133000890
:10010000213300082133000821330008213300087F
:10011000213300082133000821330008213300086F
:10012000213300082133000821330008213300085F
:1001300000000000000000000000000000000000BF
:1001400000000000000000000000000000000000AF
:10015000000000000000000000000000000000009F
:10016000000000000000000000000000000000008F
:10017000000000000000000000000000000000007F
:10018000000000000000000000000000000000006F
:10019000000000000000000000000000000000005F
:1001A000000000000000000000000000000000004F
:1001B000000000000000000000000000000000003F
:1001C000000000000000000000000000000000002F
:1001D000000000000000000000000000000000001F
:0401E0005FF8E0F1F3
:1001E80010B5054C237833B9044B13B10448AFF369
:1001F80000800123237010BDE001002000000000F2
:10020800EC06010808B5034B1BB103490348AFF3DB
:10021800008008BD00000000E4010020EC06010891
:10022800A3F5803A704700BF174B002B08BF134B4C
:100238009D46FFF7F5FF00218B460F461348144AE9
:10024800121A0DF08BF80E4B002B00D098470D4B6F
:10025800002B00D098470020002104000D000D4815
:10026800002802D00C48AFF300800DF02BF92000D5
:10027800290002F09FFA0CF0F5F800BF0000080012
:10028800000000000000000000000000E001002065
:10029800BC07002000000000000000005C0F0108FF
:1002A80000000020DC010020E0010020BC07002045
:1002B80010F8012B11F8013B012A28BF9A42F7D008
:1002C800D01A7047034613F8012B002AFBD1181ADD
:1002D8000138704770B54FF0FF0C4CF4E06C1CEA25
:1002E80011541DBF1CEA135594EA0C0F95EA0C0F24
:1002F80000F0DEF82C4481EA030621EA4C5123EA97
:100308004C5350EA013518BF52EA033541F48011C5
:1003180043F4801338D0A0FB02CE4FF00005E1FB78
:1003280002E506F00042E0FB03E54FF00006E1FBC2
:1003380003569CF0000F18BF4EF0010EA4F1FF0405
:10034800B6F5007F64F5407404D25FEA4E0E6D4145
:1003580046EB060642EAC62141EA55514FEAC52056
:1003680040EA5E504FEACE2EB4F1FD0C88BFBCF5D2
:10037800E06F1ED8BEF1004F08BF5FEA500E50F183
:10038800000041EB045170BD06F0004646EA010149
:1003980040EA020081EA0301B4EB5C04C2BFD4EB7B
:1003A8000C0541EA045170BD41F480114FF0000E74
:1003B800013C00F3AB8014F1360FDEBF002001F0E2
:1003C800004170BDC4F10004203C35DA0C341BDC5C
:1003D80004F11404C4F1200500FA05F320FA04F02E
:1003E80001FA05F240EA020001F0004221F0004162
:1003F80010EBD37021FA04F642EB06015EEA430ED5
:1004080008BF20EAD37070BDC4F10C04C4F1200504
:1004180000FA04F320FA05F001FA04F240EA0200B7
:1004280001F0004110EBD37041F100015EEA430E88
:1004380008BF20EAD37070BDC4F1200500FA05F2A8
:100448004EEA020E20FA04F301FA05F243EA020327
:1004580021FA04F001F0004121FA04F220EA020036
:1004680000EBD3705EEA430E08BF20EAD37070BD7C
:1004780094F0000F0FD101F00046400041EB01015C
:1004880011F4801F08BF013CF7D041EA060195F03E
:10049800000F18BF704703F00046520043EB0303F8
:1004A80013F4801F08BF013DF7D043EA06037047E5
:1004B80094EA0C0F0CEA135518BF95EA0C0F0CD0F0
:1004C80050EA410618BF52EA4306D1D181EA030136
:1004D80001F000414FF0000070BD50EA410606BF30
:1004E8001046194652EA430619D094EA0C0F02D175
:1004F80050EA013613D195EA0C0F05D152EA0336BA
:100508001CBF104619460AD181EA030101F00041D7
:1005180041F0FE4141F470014FF0000070BD41F020
:10052800FE4141F4780170BD4FF0FF0C1CEAD05237
:100538001EBF1CEAD15392EA0C0F93EA0C0F6FD03E
:100548001A4480EA010C400218BF5FEA41211ED01C
:100558004FF0006343EA501043EA5111A0FB013108
:100568000CF00040B1F5000F3EBF490041EAD371DD
:100578005B0040EA010062F17F02FD2A1DD8B3F159
:10058800004F40EBC25008BF20F00100704790F0C8
:10059800000F0CF0004C08BF49024CEA502040EA1A
:1005A80051207F3AC2BFD2F1FF0340EAC2507047E0
:1005B80040F400004FF00003013A5DDC12F1190F1E
:1005C800DCBF00F000407047C2F10002410021FA90
:1005D80002F1C2F1200200FA02FC5FEA310040F1A8
:1005E800000053EA4C0308BF20EADC70704792F021
:1005F800000F00F0004C02BF400010F4000F013A59
:10060800F9D040EA0C0093F0000F01F0004C02BF53
:10061800490011F4000F013BF9D041EA0C018FE7C2
:100628000CEAD15392EA0C0F18BF93EA0C0F0AD0C8
:1006380030F0004C18BF31F0004CD8D180EA0100EE
:1006480000F00040704790F0000F17BF90F0004F87
:10065800084691F0000F91F0004F14D092EA0C0F69
:1006680001D142020FD193EA0C0F03D14B0218BFFC
:10067800084608D180EA010000F0004040F0FE4042
:1006880040F40000704740F0FE4040F440007047DE
:1006980081F0004102E000BF83F0004330B54FEA2B
:1006A80041044FEA430594EA050F08BF90EA020F98
:1006B8001FBF54EA000C55EA020C7FEA645C7FEA2B
:1006C800655C00F0E2804FEA5454D4EB5555B8BF4E
:1006D8006D420CDD2C4480EA020281EA030382EABF
:1006E800000083EA010180EA020281EA0303362D51
:1006F80088BF30BD11F0004F4FEA01314FF4801C24
:100708004CEA113102D0404261EB410113F0004F35
:100718004FEA03334CEA133302D0524263EB4303EC
:1007280094EA050F00F0A780A4F10104D5F1200E8A
:100738000DDB02FA0EFC22FA05F2801841F10001E5
:1007480003FA0EF2801843FA05F359410EE0A5F1B9
:1007580020050EF1200E012A03FA0EFC28BF4CF0EA
:10076800020C43FA05F3C01851EBE37101F00045A0
:1007780007D54FF0000EDCF1000C7EEB00006EEBAD
:100788000101B1F5801F1BD3B1F5001F0CD3490837
:100798005FEA30004FEA3C0C04F101044FEA44528E
:1007A80012F5800F80F09A80BCF1004F08BF5FEA15
:1007B800500C50F1000041EB045141EA050130BDF5
:1007C8005FEA4C0C404141EB0101013C28BFB1F507
:1007D800801FE9D291F0000F04BF01460020B1FA52
:1007E80081F308BF2033A3F10B03B3F120020CDA25
:1007F8000C3208DD02F1140CC2F10C0201FA0CF003
:1008080021FA02F10CE002F11402D8BFC2F1200C67
:1008180001FA02F120FA0CFCDCBF41EA0C0190401D
:10082800E41AA2BF01EB0451294330BD6FEA040466
:100838001F3C1CDA0C340EDC04F11404C4F1200251
:1008480020FA04F001FA02F340EA030021FA04F363
:1008580045EA030130BDC4F10C04C4F1200220FABA
:1008680002F001FA04F340EA0300294630BD21FAF8
:1008780004F0294630BD94F0000F83F4801306BFBE
:1008880081F480110134013D4EE77FEA645C18BFB2
:100898007FEA655C29D094EA050F08BF90EA020F49
:1008A80005D054EA000C04BF1946104630BD91EA41
:1008B800030F1EBF0021002030BD5FEA545C05D144
:1008C8004000494128BF41F0004130BD14F5800483
:1008D8003CBF01F5801130BD01F0004545F0FE41F7
:1008E80041F470014FF0000030BD7FEA645C1ABF2C
:1008F800194610467FEA655C1CBF0B46024650EA63
:10090800013406BF52EA033591EA030F41F400218E
:1009180030BD00BF90F0000F04BF0021704730B514
:100928004FF4806404F132044FF000054FF00001E9
:1009380050E700BF90F0000F04BF0021704730B5AA
:100948004FF4806404F1320410F0004548BF40427F
:100958004FF000013EE700BF42004FEAE2014FEAD4
:1009680031014FEA02701FBF12F07F4393F07F4FAF
:1009780081F06051704732F07F4208BF704793F0B2
:100988007F4F04BF41F40021704730B54FF46074C5
:1009980001F0004521F000411CE700BF50EA0102C8
:1009A80008BF704730B54FF000050AE050EA010271
:1009B80008BF704730B511F0004502D5404261EBE1
:1009C80041014FF4806404F132045FEA915C3FF422
:1009D800D8AE4FF003025FEADC0C18BF03325FEABF
:1009E800DC0C18BF033202EBDC02C2F1200300FA70
:1009F80003FC20FA02F001FA03FE40EA0E0021FA95
:100A080002F11444BDE600BF70B54FF0FF0C4CF482
:100A1800E06C1CEA11541DBF1CEA135594EA0C0F34
:100A280095EA0C0F00F0DEF82C4481EA030621EA6F
:100A38004C5123EA4C5350EA013518BF52EA0335AA
:100A480041F4801143F4801338D0A0FB02CE4FF05C
:100A58000005E1FB02E506F00042E0FB03E54FF08C
:100A68000006E1FB03569CF0000F18BF4EF0010E84
:100A7800A4F1FF04B6F5007F64F5407404D25FEA80
:100A88004E0E6D4146EB060642EAC62141EA555133
:100A98004FEAC52040EA5E504FEACE2EB4F1FD0C75
:100AA80088BFBCF5E06F1ED8BEF1004F08BF5FEAF3
:100AB800500E50F1000041EB045170BD06F00046A5
:100AC80046EA010140EA020081EA0301B4EB5C0452
:100AD800C2BFD4EB0C0541EA045170BD41F480114A
:100AE8004FF0000E013C00F3AB8014F1360FDEBF6F
:100AF800002001F0004170BDC4F10004203C35DA4B
:100B08000C341BDC04F11404C4F1200500FA05F3CD
:100B180020FA04F001FA05F240EA020001F000426E
:100B280021F0004110EBD37021FA04F642EB0601E4
:100B38005EEA430E08BF20EAD37070BDC4F10C040E
:100B4800C4F1200500FA04F320FA05F001FA04F2D2
:100B580040EA020001F0004110EBD37041F10001BE
:100B68005EEA430E08BF20EAD37070BDC4F12005C9
:100B780000FA05F24EEA020E20FA04F301FA05F231
:100B880043EA020321FA04F001F0004121FA04F2D9
:100B980020EA020000EBD3705EEA430E08BF20EAA9
:100BA800D37070BD94F0000F0FD101F000464000E3
:100BB80041EB010111F4801F08BF013CF7D041EA65
:100BC800060195F0000F18BF704703F00046520069
:100BD80043EB030313F4801F08BF013DF7D043EA3A
:100BE8000603704794EA0C0F0CEA135518BF95EAF0
:100BF8000C0F0CD050EA410618BF52EA4306D1D177
:100C080081EA030101F000414FF0000070BD50EA95
:100C1800410606BF1046194652EA430619D094EA1F
:100C28000C0F02D150EA013613D195EA0C0F05D109
:100C380052EA03361CBF104619460AD181EA03015D
:100C480001F0004141F0FE4141F470014FF0000015
:100C580070BD41F0FE4141F4780170BD70B54FF0B0
:100C6800FF0C4CF4E06C1CEA11541DBF1CEA135530
:100C780094EA0C0F95EA0C0F00F0A7F8A4EB050412
:100C880081EA030E52EA03354FEA013100F0888009
:100C98004FEA03334FF0805545EA131343EA1263D2
:100CA8004FEA022245EA111545EA10654FEA002687
:100CB8000EF000419D4208BF964244F1FD0404F540
:100CC800407402D25B084FEA3202B61A65EB03059C
:100CD8005B084FEA32024FF480104FF4002CB6EB59
:100CE800020E75EB030E22BFB61A754640EA0C00D9
:100CF8005B084FEA3202B6EB020E75EB030E22BF19
:100D0800B61A754640EA5C005B084FEA3202B6EB59
:100D1800020E75EB030E22BFB61A754640EA9C0018
:100D28005B084FEA3202B6EB020E75EB030E22BFE8
:100D3800B61A754640EADC0055EA060E18D04FEAA6
:100D4800051545EA16754FEA06164FEAC30343EA46
:100D580052734FEAC2025FEA1C1CC0D111F4801F13
:100D68000BD141EA00014FF000004FF0004CB6E70C
:100D780011F4801F04BF01430020B4F1FD0C88BFAB
:100D8800BCF5E06F3FF6AFAEB5EB030C04BFB6EBB6
:100D9800020C5FEA500C50F1000041EB045170BDA9
:100DA8000EF0004E4EEA113114EB5C04C2BFD4EBD6
:100DB8000C0541EA045170BD41F480114FF0000E5A
:100DC800013C90E645EA060E8DE60CEA135594EAD6
:100DD8000C0F08BF95EA0C0F3FF43BAF94EA0C0FD9
:100DE8000AD150EA01347FF434AF95EA0C0F7FF44E
:100DF80025AF104619462CE795EA0C0F06D152EAA2
:100E080003353FF4FDAE1046194622E750EA410685
:100E180018BF52EA43067FF4C5AE50EA41047FF496
:100E28000DAF52EA43057FF4EBAE12E74FF0FF3CFB
:100E380006E000BF4FF0010C02E000BF4FF0010CCC
:100E48004DF804CD4FEA410C7FEA6C5C4FEA430C45
:100E580018BF7FEA6C5C1BD001B050EA410C0CBF94
:100E680052EA430C91EA030F02BF90EA020F0020F6
:100E7800704710F1000F91EA030F58BF994208BF5D
:100E880090422CBFD8176FEAE37040F0010070471A
:100E98004FEA410C7FEA6C5C02D150EA013C07D171
:100EA8004FEA430C7FEA6C5CD6D152EA033CD3D0BC
:100EB8005DF8040B704700BF8446104662468C46B6
:100EC8001946634600E000BF01B5FFF7B7FF0028E9
:100ED80048BF10F1000F01BD4DF808EDFFF7F4FF12
:100EE8000CBF012000205DF808FB00BF4DF808ED9D
:100EF800FFF7EAFF34BF012000205DF808FB00BFC0
:100F08004DF808EDFFF7E0FF94BF012000205DF8E1
:100F180008FB00BF4DF808EDFFF7CEFF94BF012096
:100F280000205DF808FB00BF4DF808EDFFF7C4FF8F
:100F380034BF012000205DF808FB00BF4FEA410CD8
:100F48007FEA6C5C02D150EA013C0AD14FEA430CBB
:100F58007FEA6C5C02D152EA033C02D14FF00000F8
:100F680070474FF0010070474FEA410212F5001236
:100F780015D211D56FF47873B3EB625212D94FEAD8
:100F8800C12343F0004343EA505311F0004F23FAC2
:100F980002F018BF404270474FF00000704750EA17
:100FA800013005D111F0004008BF6FF000407047D4
:100FB8004FF00000704700BF4FEA4102B2F1E04332
:100FC80024BFB3F5001CDCF1FE5C0DD901F0004C28
:100FD8004FEAC0024CEA5070B2F1004F40EB830078
:100FE80008BF20F00100704711F0804F21D113F1A4
:100FF8003872BCBF01F00040704741F480114FEADD
:101008005252C2F11802C2F1200C10FA0CF320FA65
:1010180002F018BF40F001004FEAC1234FEAD32382
:1010280003FA0CFC40EA0C0023FA02F34FEA4303EC
:10103800CCE77FEA625307D150EA01331EBF4FF075
:10104800FE4040F44000704701F0004040F0FE4090
:1010580040F40000704700BF80F0004002E000BF8D
:1010680081F0004142001FBF5FEA410392EA030F8B
:101078007FEA226C7FEA236C6AD04FEA1262D2EBD5
:101088001363C1BFD218414048404140B8BF5B42DA
:10109800192B88BF704710F0004F40F4000020F073
:1010A8007F4018BF404211F0004F41F4000121F089
:1010B8007F4118BF494292EA030F3FD0A2F10102D3
:1010C80041FA03FC10EB0C00C3F1200301FA03F111
:1010D80000F0004302D5494260EB4000B0F5000F34
:1010E80013D3B0F1807F06D340084FEA310102F1F3
:1010F8000102FE2A51D2B1F1004F40EBC25008BFA5
:1011080020F0010040EA03007047490040EB00006E
:10111800013A28BFB0F5000FEDD2B0FA80FCACF16F
:10112800080CB2EB0C0200FA0CF0AABF00EBC2509C
:1011380052421843BCBFD0401843704792F0000F8A
:1011480081F4000106BF80F400000132013BB5E7DD
:101158004FEA41037FEA226C18BF7FEA236C21D053
:1011680092EA030F04D092F0000F08BF08467047B8
:1011780090EA010F1CBF0020704712F07F4F04D186
:10118800400028BF40F00040704712F100723CBF99
:1011980000F50000704700F0004343F0FE4040F4C3
:1011A800000070477FEA226216BF08467FEA236381
:1011B8000146420206BF5FEA412390EA010F40F46C
:1011C800800070474FF0000304E000BF10F00043B8
:1011D80048BF40425FEA000C08BF704743F096439F
:1011E80001464FF000001CE050EA010208BF7047BA
:1011F8004FF000030AE000BF50EA010208BF704741
:1012080011F0004302D5404261EB41015FEA010C55
:1012180002BF84460146002043F0B64308BFA3F14D
:101228008053A3F50003BCFA8CF2083AA3EBC2532F
:1012380010DB01FA02FC634400FA02FCC2F120024E
:10124800BCF1004F20FA02F243EB020008BF20F085
:101258000100704702F1200201FA02FCC2F12002EB
:1012680050EA4C0021FA02F243EB020008BF20EAE0
:10127800DC7070474FF0FF0C1CEAD0521EBF1CEA0E
:10128800D15392EA0C0F93EA0C0F6FD01A4480EAFC
:10129800010C400218BF5FEA41211ED04FF00063E5
:1012A80043EA501043EA5111A0FB01310CF0004011
:1012B800B1F5000F3EBF490041EAD3715B0040EA37
:1012C800010062F17F02FD2A1DD8B3F1004F40EB07
:1012D800C25008BF20F00100704790F0000F0CF0DA
:1012E800004C08BF49024CEA502040EA51207F3A9E
:1012F800C2BFD2F1FF0340EAC250704740F4000079
:101308004FF00003013A5DDC12F1190FDCBF00F069
:1013180000407047C2F10002410021FA02F1C2F117
:10132800200200FA02FC5FEA310040F1000053EAB3
:101338004C0308BF20EADC70704792F0000F00F001
:10134800004C02BF400010F4000F013AF9D040EA07
:101358000C0093F0000F01F0004C02BF490011F49B
:10136800000F013BF9D041EA0C018FE70CEAD15399
:1013780092EA0C0F18BF93EA0C0F0AD030F0004C19
:1013880018BF31F0004CD8D180EA010000F00040CD
:10139800704790F0000F17BF90F0004F084691F08B
:1013A800000F91F0004F14D092EA0C0F01D14202C5
:1013B8000FD193EA0C0F03D14B0218BF084608D18E
:1013C80080EA010000F0004040F0FE4040F40000D8
:1013D800704740F0FE4040F4400070474FF0FF0C6B
:1013E8001CEAD0521EBF1CEAD15392EA0C0F93EAB2
:1013F8000C0F69D0A2EB030280EA010C49024FEA04
:10140800402037D04FF0805343EA111143EA1013BC
:101418000CF000408B4238BF5B0042F17D024FF474
:10142800000C8B4224BF5B1A40EA0C00B3EB510F4F
:1014380024BFA3EB510340EA5C00B3EB910F24BF38
:10144800A3EB910340EA9C00B3EBD10F24BFA3EBBD
:10145800D10340EADC001B0118BF5FEA1C1CE0D185
:10146800FD2A3FF650AF8B4240EBC25008BF20F038
:10147800010070470CF0004C4CEA50207F32C2BF8C
:10148800D2F1FF0340EAC250704740F400004FF029
:101498000003013A37E792F0000F00F0004C02BF5A
:1014A800400010F4000F013AF9D040EA0C0093F024
:1014B800000F01F0004C02BF490011F4000F013B7E
:1014C800F9D041EA0C0195E70CEAD15392EA0C0FE6
:1014D80008D142027FF47DAF93EA0C0F7FF470AF1E
:1014E800084676E793EA0C0F04D14B023FF44CAF61
:1014F80008466EE730F0004C18BF31F0004CCAD1F6
:1015080030F000427FF45CAF31F000437FF43CAF31
:101518005FE700BF4FF0FF3C06E000BF4FF0010C53
:1015280002E000BF4FF0010C4DF804CD4FEA400235
:101538004FEA41037FEA226C18BF7FEA236C11D07F
:1015480001B052EA530C18BF90EA010F58BFB2EB32
:10155800030088BFC81738BF6FEAE17018BF40F0B2
:10156800010070477FEA226C02D15FEA402C05D166
:101578007FEA236CE4D15FEA412CE1D05DF8040BEB
:10158800704700BF844608466146FFE70FB5FFF77E
:10159800C9FF002848BF10F1000F0FBD4DF808ED36
:1015A800FFF7F4FF0CBF012000205DF808FB00BF27
:1015B8004DF808EDFFF7EAFF34BF012000205DF881
:1015C80008FB00BF4DF808EDFFF7E0FF94BF0120CE
:1015D80000205DF808FB00BF4DF808EDFFF7D2FFCB
:1015E80094BF012000205DF808FB00BF4DF808ED0E
:1015F800FFF7C8FF34BF012000205DF808FB00BFDB
:101608004FEA4002B2F1FE4F0FD34FF09E03B3EB07
:1016180012620DD94FEA002343F0004310F0004F47
:1016280023FA02F018BF404270474FF0000070479D
:1016380012F1610F01D1420205D110F0004008BF3C
:101648006FF0004070474FF00000704708B5084A37
:1016580013780133DBB21370142B00D808BD13467E
:1016680000221A704FF40051024803F05EFEF5E7BD
:10167800FC0100200010014008B500F095FC00F0C6
:101688003BF900F051FD08BD08B5FFF7DFFF00F09A
:10169800B7F800F043FB0A2001F0BEFE08BD0000C9
:1016A800014B1880704700BF06020020014B1888C4
:1016B800704700BF06020020014B1870704700BF3A
:1016C80004020020014B1878704700BF0402002074
:1016D80010B5012804D0044670B1092818D810BDE7
:1016E8000120FFF7E9FF0020FFF7DAFF01222021A0
:1016F8000F4803F014FEF2E70020FFF7DDFF00209B
:10170800FFF7CEFF00222021094803F008FEE6E794
:101718000220FFF7D1FF074BA3FB0430C008FFF7F7
:10172800BFFF01222021024803F0F9FDD7E700BFDF
:1017380000100140CDCCCCCC08B5FFF7C3FF022880
:1017480000D008BDFFF7B2FF20B1074A1388013B5C
:101758001380F6E700222021044803F0E0FD002072
:10176800FFF7AAFFEDE700BF0602002000100140C6
:1017780003281CD8DFE800F002090F154FF080435A
:10178800586A00B200225A6270470A4B586A00B27F
:1017980000225A627047084B586A00B200225A6207
:1017A8007047064B586A00B200225A627047002000
:1017B800704700BF00080040000C004000040040D3
:1017C8000A4B1B6803600A4B1B684360094B1B6884
:1017D8008360094B1B68C360084A136801331360B0
:1017E800322B02D9134600221A6070472C020020BF
:1017F8002802002024020020200200200C020020E1
:1018080038B50020FFF7B4FF1E4A13681B1A13608F
:101818000120FFF7ADFF1C4A136803441360022040
:10182800FFF7A6FF194A1368034413600320FFF764
:101838009FFF174B1A68101A1860164A136801336D
:10184800136042F20F7293421BD9134B19680D4D66
:101858002A680A441A6059680B4C22680A445A607C
:101868000A490A68D3F808C062449A60DA681044E2
:10187800D86000232B6023600B60054A1360054A7B
:10188800136038BD2C02002028020020240200200A
:1018980020020020080200201002002003281BD884
:1018A800DFE800F002080E140C4B18680C4B1B689C
:1018B80018447047094B58680A4B1B68184470470E
:1018C800064B9868084B1B6818447047034BD86848
:1018D800064B1B6818447047002070471002002010
:1018E8002C020020280200202402002020020020D0
:1018F80008B5FFF7D3FF08BD08B50421074807F06E
:1019080081FC0421064807F07DFC0421054807F006
:1019180079FC0421044807F075FC08BDE4040020A4
:101928009C040020540400200C04002008B5042165
:10193800034803F0EDFC08B1002008BD0120FCE7D6
:101948000014014010B50446FFF7F0FF012808D045
:101958000A4B00221A80094B1B88022B0BD000204F
:1019680010BD064B1B88601CB3EB400FF3DA013344
:10197800024A1380EFE70120F2E700BF300200209F
:1019880070B50E4615461C46184B984203DB40F6C8
:101998003403984215DD154B9E4203DB40F63403B1
:1019A8009E4213DD114B9D4203DB40F634039D42FA
:1019B80011DD0E4B9C4203DB40F634039C420FDDE5
:1019C80070BD0146002000F02DFBE4E73146012000
:1019D80000F028FBE6E72946022000F023FBE8E7B1
:1019E8002146032000F01EFBEAE700BFCCF7FFFF0B
:1019F80038B5104D2C6801342C600F4C012525702A
:101A08000E4C20846184A284E38400240EE004F157
:101A180010020A4B33F91200FEF78CFFFFF7CCFADD
:101A28000146204600F006FD0134E4B2032CEED94D
:101A380038BD00BF380200206A0200203C020020A6
:101A480010B5044600231A4619461846FFF7D0FF7A
:101A5800042000F0CDFC204600F0CEFA014B002215
:101A68001A7010BD6A020020004870470000164333
:101A7800004870470000954310B5FFF7C1FE0B48BA
:101A8800FFF79EFE00230DE0084A52F8230008499C
:101A980051F82320821A074C44F8232041F82300E8
:101AA8000133DBB2032BEFD910BD00BF8C0200203D
:101AB8007C0200206C0200202DE9F0470646FFF763
:101AC800DBFFFFF7D5FF0446DFF80CA1DAF80000CA
:101AD8004FF0640909FB00F0FFF778FB2146FFF798
:101AE800C9FB3E49FFF77AFC8046DAF8040009FB97
:101AF80000F0FFF76BFB2146FFF7BCFB3749FFF708
:101B08006DFC0746DAF8080009FB00F0FFF75EFBFA
:101B18002146FFF7AFFB3149FFF760FC0546DAF8CD
:101B28000C0009FB00F0FFF751FB2146FFF7A2FB71
:101B38002A49FFF753FC0446FFF796FF81463946CA
:101B48004046FFF78FFA82462946FFF78BFA21466F
:101B5800FFF788FA4FF07A51FFF78CFBFFF750FD3B
:101B6800308039464046FFF77BFA2946FFF778FA76
:101B78002146FFF777FA00F100404FF07A51FFF75E
:101B880079FBFFF73DFD708029465046FFF768FA5C
:101B98002146FFF765FA00F100404FF07A51FFF750
:101BA80069FB4946FFF71AFC0D49FFF763FBFFF78E
:101BB80027FDB0800B4B1B7823B90B4B00221A6012
:101BC800BDE8F0870948C0F8008047608560C460B8
:101BD80000F050FBF1E700BF6C0200200000A544B4
:101BE80000007A446A020020340200203C020020EF
:101BF8002DE9F843054688469146FFF735FF044628
:101C08000021FFF7CBFC08B14FF07E54C8F100006B
:101C1800FFF7DCFA07462846FFF7D8FA0646002100
:101C28002046FFF7BBFC00283DD1C9F10000FFF7B3
:101C3800CDFA3749FFF7D2FB2146FFF71BFB0446D5
:101C48002DB9B8F1000F02D1B9F1000F31D03146EA
:101C58003846FFF707FA80462146FFF703FAFFF7F1
:101C6800CFFC054639463046FFF7FAF907462146C4
:101C7800FFF7F8F9FFF7C4FC064621463846FFF798
:101C8800EFF9FFF7BDFC074621464046FFF7E8F9A4
:101C9800FFF7B6FC40F6B8339D420EDC1D4B9D4263
:101CA8000DDA1C4D0BE01C4800F0DAFB4FF07E54B7
:101CB800BBE70120FFF7C4FE28E040F6B83540F640
:101CC800B8339E4204DC134B9E4203DA114E01E006
:101CD80040F6B83640F6B8339F4204DC0D4B9F42BD
:101CE80003DA0C4F01E040F6B83740F6B8339842B3
:101CF80004DC084B984203DA064801E040F6B830A5
:101D080003B23AB231B228B2FFF772FEBDE8F883E7
:101D180000007A4448F4FFFF84070108F8B510482A
:101D2800FFF7CAFE0F4B1B7803B9F8BD0E4B1F69AE
:101D38005C699D69D869FFF763FC06B22846FFF71E
:101D48005FFC05B22046FFF75BFC04B23846FFF79C
:101D580057FC33462A46214600B2FFF711FEE4E756
:101D6800640200206A0200203C02002070B50C4684
:101D780016461D46414209B2002000F053F961425F
:101D880009B2012000F04EF931B2022000F04AF900
:101D980029B2032000F046F970BD000070B5064670
:101DA8000C460A460146374800F05AFB3649304689
:101DB800FEF77EFA002862D034493046FEF778FAFA
:101DC800A0B9644225462DB22946002000F02AF920
:101DD80024B22146012000F025F92146022000F016
:101DE80021F92946032000F01DF970BD2849304625
:101DF800FEF75EFA08B96542E5E726493046FEF780
:101E080057FA10B925466442DDE723493046FEF704
:101E18004FFA054608B96400D5E720493046FEF771
:101E280047FA10B965000446CDE71D493046FEF76C
:101E38003FFA054618B9C4EBC4746400C3E71949EE
:101E48003046FEF735FA20B9C4EBC4756D00044678
:101E5800B9E715493046FEF72BFA20B11349304649
:101E6800FEF726FA30B9124800F0FAFA012000F01D
:101E7800C3F8BAE731460F4800F0F2FAB5E725464D
:101E8800A1E700BFBC070108E0070108E407010853
:101E9800E8070108EC070108F0070108F407010842
:101EA800F8070108FC0701080008010804080108F0
:101EB800080801082808010800B5A9B00023049300
:101EC80005930693079304A8FFF77AFC079B0293F0
:101ED800069B0193059B0093049B094A802108A84F
:101EE8000BF036F908A8FEF7EDF94FF0FF3382B290
:101EF80008A9044809F082F929B05DF804FB00BF7D
:101F08004C080108FC05002008B5114800F0A8FAA3
:101F1800104B1A68002353620F4A126853620F4A23
:101F2800126853620E4A126853620AE000220D4991
:101F380041F823200C4941F823200C4941F823207B
:101F48000133032BF2DD0A4800F08AFA08BD00BF0E
:101F580080080108E40400209C04002054040020A8
:101F68000C0400208C0200206C0200207C0200205F
:101F7800B408010808B5034800F072FA024800F0F6
:101F88006FFA08BDD0080108FC080108002803DC26
:101F9800002805DB0020704700F2DC5000B27047D3
:101FA800A0F2DC5000B2704710B5114C0021204659
:101FB80006F006F90421204608F0C6F90821204653
:101FC80008F0C2F90C21204606F0FAF8094C002165
:101FD800204606F0F5F80421204606F0F1F808211D
:101FE800204606F0EDF80C21204606F0E9F810BD71
:101FF8002C050020C4030020034600B101234FF440
:10200800616202FB03F3064A53639363D363136469
:10201800A2F50062136453639363D363704700BFF0
:102028000034014010B50446484200B2FFF7AEFF45
:10203800B0F5616F04DA10F5616F03DC204801E048
:102048004FF46160032C0BD8DFE804F00211202D57
:10205800404200B2002804DB1A4B586300229A63FE
:1020680010BD184B00225A6340429863F8E740427B
:1020780000B2002804DB134BD86300221A64EFE790
:10208800104B0022DA6340421864E9E7002804DBB9
:102098000D4B186400225A63E2E70B4B00221A64C6
:1020A80040425863DCE7002804DB074B98630022B2
:1020B800DA63D5E7044B00229A634042D863CFE73E
:1020C800F0F1FFFF00340140002C014010B5134A25
:1020D800002353639363D3631364A2F5006213640C
:1020E80053639363D3630E4C01224021204603F0CF
:1020F80016F901228021204603F011F901224FF43C
:102108008071204603F00BF901224FF4007120463C
:1021180003F005F9034800F0A3F910BD00340140AD
:1021280000100140140901080021032918DC10B42B
:102138000C4C01EBC10398002318002222505A606E
:102148005A619A61DA611A624FF07E529A60064AC1
:10215800DA60064A1A6101310329E9DD10BC7047CB
:10216800704700BFA8020020CDCCCC3DCDCC4C3D63
:102178002DE9F04F89B0044688460792D0F80090C0
:102188004846FEF76DFF05466061D4F804A0A768CD
:10219800E6693146FEF764FF01463846FFF76AF8FC
:1021A8000746E1682846FFF765F801463846FEF716
:1021B80059FF0746D4F810B031463046FEF752FFB3
:1021C80001462846FEF74CFFA169FEF74BFF014682
:1021D8005846FFF74FF801463846FEF743FF0146D9
:1021E8005046FEF73FFF6060A661E5611D49FFF7B5
:1021F800FDF908B11B4B63601B496068FFF7D8F90C
:1022080008B1194B6360194A136801331360092B2D
:1022180007D86068FFF7F4F9FEF7D8FF09B0BDE802
:10222800F08FD4F804A04846FEF796FB06460F4602
:102238005046FEF791FBCDE904012846FEF78CFBDA
:10224800CDE902014046FEF787FBCDE900013246A1
:102258003B460799064800F003F9044B00221A6030
:10226800D7E700BF00006145000061C5A402002057
:102278002C09010870B5064600240EE02846FFF731
:10228800BFF9FEF7A3FF231D46F82300164A13687B
:1022980001331360092B1AD80134032C23DC04EB17
:1022A800C400224656F82410104B03EB8000FFF7B9
:1022B8005FFF05460E49FFF799F900B10C4D0D492E
:1022C8002846FFF775F90028D8D00A4DD6E7FEF75B
:1022D80043FB02460B462146074800F0C1F8024B73
:1022E80000221A60D8E770BDA0020020A8020020D2
:1022F80000006145000061C5740901082DE9F04737
:1023080084B080468A4616461F46354A136801330C
:102318001360092B05D8B8F1040F3ED840D100242A
:1023280039E00846FEF718FB04460D463846FEF726
:1023380013FBCDE902013046FEF70EFBCDE90001A3
:1023480022462B464146274800F08AF8244B0022B3
:102358001A60E0E704EBC403234D05EB830CCCF8CB
:1023680008A0CCF80C60CCF810705046FEF7F4FAD0
:10237800804689463846FEF7EFFACDE90201304635
:10238800FEF7EAFACDE9000142464B4621461748D6
:1023980000F066F80134032CDCDD04B0BDE8F087FA
:1023A80008EBC802104B03EB8203C3F808A0DE60F9
:1023B8001F615046FEF7D0FA04460D463846FEF730
:1023C800CBFACDE902013046FEF7C6FACDE90001A5
:1023D80022462B464146054800F042F8DDE700BF9B
:1023E8009C020020AC090108A8020020F00901089D
:1023F80004280BD81AD00E4900EBC00301EB830365
:1024080000225A605A619A61DA611A62704701EBD8
:10241800C102074B03EB820300225A605A619A619A
:10242800DA611A6201310329F1DD70470021FAE708
:10243800A8020020042805D80ED000EBC000074BE6
:1024480043F82010704703EBC300044A42F82010F9
:102458000133032BF7DD70470023FAE7A8020020B9
:102468000FB400B5A3B024AB53F8042B019380211B
:1024780002A80AF065FF02A8FDF724FF4FF0FF331A
:1024880082B202A9034808F0B9FE23B05DF804EB54
:1024980004B07047FC05002008B501220249034832
:1024A80009F0FBFE08BD00BF38030020FC05002032
:1024B80070B58EB0054600230C930D930A930B93C9
:1024C80008AA0893099306A90693079304AC0493F2
:1024D80005930294019100920AAB0CAA32490AF0C2
:1024E8006BFE041E1FDD31490CA8FDF7E1FE18BB89
:1024F800032C1DDD0AA809F0ADFF044608A809F061
:10250800A9FF054606A809F0A5FF064603462A4680
:1025180021462748FFF7A4FF32B229B220B2FFF7BD
:1025280067FB0EB070BD29462248FFF799FFF8E710
:102538002148FFF795FFF4E720490CA8FDF7B8FEFE
:1025480068B9022C07DD08A809F084FF01460AA82B
:10255800FFF724FCE5E71A48FFF782FFE1E719498E
:102568000CA8FDF7A5FED0B9012C0CDD16490AA868
:10257800FDF79EFE58B115490AA8FDF799FE48B91E
:10258800FFF7F8FCCDE71248FFF76AFFC9E7FFF746
:1025980093FCC6E70AA90F48FFF762FFC1E70CA939
:1025A8000D48FFF75DFFBCE71C0A0108480A01084F
:1025B800740A0108300A01084C0A0108A40A010833
:1025C800A80A0108D00A0108F80A0108FC0A01084B
:1025D800D40A0108000B01081C0B010838B5026871
:1025E8001B4B9A4200D038BD1A4B1978A1F1200331
:1025F800DBB25E2B17D92E221748FFF731FF154B98
:102608001B780A2B11D00D2B0FD0144A1278D2B296
:102618007E2A19D811490A78D0B20132D2B20A708A
:102628000F4A13540AE00A46E6E70C4C2378DBB25B
:102638000B480025C554FFF73BFF257001220549CB
:10264800084809F02AFECEE7044B00221A70F5E785
:102658000038014038030020380B010839030020F6
:102668003C030020FC05002000B583B00E4B5A69DE
:1026780042F001025A615B6903F001030193019B77
:10268800002211460E2000F0D7FF0E2000F0E4FFD4
:10269800002211460F2000F0CFFF0F2000F0DCFFD2
:1026A80003B05DF804FB00BF0010024070B588B0AD
:1026B80000240494059406940794214B9A6942F0E7
:1026C80010029A619A6902F010020092009A9A69BF
:1026D80042F020029A619A6902F020020192019A5E
:1026E8009A6942F004029A619A6902F0040202921D
:1026F800029A9A6942F008029A619B6903F00803FA
:102708000393039B0F4E224642F22001304602F00B
:1027180006FE42F220030493012505950694022340
:10272800079304A9304602F045FC0423049305945A
:10273800069504A9044802F03DFC08B070BD00BF2E
:1027480000100240001001400014014072B6FEE77C
:1027580000B591B02822002106A80AF0FFFD002349
:1027680001930293039304930593012206924FF475
:10277800803307930A9202220D920E934FF4E013CE
:102788000F9306A802F0A2FF80B90F23019302213C
:102798000291002303934FF480620492059301A8E9
:1027A80003F0FAF920B911B05DF804FBFFF7CEFF8A
:1027B800FFF7CCFF08B500F0E9FDFFF7C9FFFFF709
:1027C80075FFFFF751FF00F043F900F073F900F0CF
:1027D800A3F900F0D3F900F03DFB00F0CBFB00F0CB
:1027E800BFFC0A2000F018FEFFF756FE0A2000F092
:1027F80013FEFEF741FF0A2000F00EFEFEF744FF2D
:10280800FCE7000082B00E4B9A6942F001029A611F
:102818009A6902F001020092009ADA6942F0805245
:10282800DA61DB6903F080530193019B054A536821
:1028380023F0E06343F00073536002B0704700BFB9
:102848000010024000000140FEE7FEE7FEE7FEE759
:10285800FEE770477047704708B500F0A9FD08BD4E
:1028680008B5024801F01AFC08BD00BFB8050020F1
:1028780008B5024801F012FC08BD00BF740500202D
:1028880008B5024809F0B0FA08BD00BFFC050020F1
:1028980070470120704708B50AF00EFE1623036042
:1028A8004FF0FF3008BD08B54FF0FF31FFF7F3FFD9
:1028B800FEE770B50C461646002506E0AFF300802B
:1028C800214601F8010B01350C46B542F6DB3046CE
:1028D80070BD70B50C461646002504E014F8010BCF
:1028E800AFF300800135B542F8DB304670BD4FF0DC
:1028F800FF3070474FF400534B60002070470120B1
:102908007047002070470EB44FF0FF3003B0704797
:1029180008B50AF0D1FD0A2303604FF0FF3008BD67
:1029280008B50AF0C9FD022303604FF0FF3008BD67
:102938004FF0FF3070474FF400534B600020704752
:1029480008B50AF0B9FD1F2303604FF0FF3008BD3A
:1029580008B50AF0B1FD0B2303604FF0FF3008BD46
:1029680008B50AF0A9FD0C2303604FF0FF3008BD3D
:1029780010B503460C4A0D490D48006840B10C4893
:1029880000680344521A934206D8094A136010BDDE
:102998000748084C0460F2E70AF08EFD0C23036038
:1029A8004FF0FF30F3E700BF00C000200004000034
:1029B800C0030020C0070020704700001F4B5B6861
:1029C80003F00C03042B14D0082B16D01BB11C4B9E
:1029D8001C4A1A6002E01A4B1A4A1A60174B5B68C5
:1029E800C3F30313184AD15C154A1368CB4013602C
:1029F8007047134B134A1A60F0E7104A536852683D
:102A0800C3F38343023312F4803F05D10F4A02FB1C
:102A180003F30B4A1360E1E7084A526812F4003FD7
:102A280005D00A4A02FB03F3054A1360D6E7054AB4
:102A380002FB03F3024A1360D0E700BF0010024014
:102A48000800002000127A005C0B010800093D0014
:102A580000B58DB02422002103A80AF07FFC0023D2
:102A68000193029312484FF08042026043608360F2
:102A78004FF6FF72C260036183610323039301234E
:102A88000593099303A904F0F1FB50B900230193BE
:102A9800029301A9064808F019F928B90DB05DF8A4
:102AA80004FBFFF753FEF1E7FFF750FEF6E700BF20
:102AB800E404002000B58DB02422002103A80AF008
:102AC8004DFC0023019302931148124A02604360AF
:102AD80083604FF6FF72C26003618361032303932F
:102AE80001230593099303A904F0C0FB50B90023FF
:102AF8000193029301A9064808F0E8F828B90DB037
:102B08005DF804FBFFF722FEF1E7FFF71FFEF6E78B
:102B18009C0400200004004000B58DB02422002150
:102B280003A80AF01BFC0023019302931148124AE0
:102B38000260436083604FF6FF72C2600361836185
:102B48000323039301230593099303A904F08EFB40
:102B580050B900230193029301A9064808F0B6F87A
:102B680028B90DB05DF804FBFFF7F0FDF1E7FFF7BA
:102B7800EDFDF6E7540400200008004000B58DB0D4
:102B88002422002103A80AF0E9FB00230193029301
:102B98001148124A0260436083604FF6FF72C260B8
:102BA800036183610323039301230593099303A915
:102BB80004F05CFB50B900230193029301A9064875
:102BC80008F084F828B90DB05DF804FBFFF7BEFDE6
:102BD800F1E7FFF7BBFDF6E70C040020000C00400E
:102BE80082B003680E4A934204D00E4A93420CD036
:102BF80002B070470C4B9A6942F400629A619B6973
:102C080003F400630093009BF2E7074B9A6942F4D0
:102C180000529A619B6903F400530193019BE7E713
:102C2800002C0140003401400010024010B58EB065
:102C380000230A930B930C930D930368B3F1804F11
:102C48000AD04C4A934240D04B4A934259D04B4AFF
:102C5800934272D00EB010BD03F50433DA6942F026
:102C68000102DA61DA6902F001020192019A9A69B5
:102C780042F004029A619A6902F004020292029AEE
:102C88009A6942F008029A619B6903F0080303936A
:102C9800039B4FF400430A9301240C940AA9384873
:102CA80002F088F908230A9300230B930C940AA9CD
:102CB800344802F07FF9344A536823F4407343F0F0
:102CC800E06343F480735360C4E7304BDA6942F041
:102CD8000202DA61DA6902F002020492049A9A693D
:102CE80042F004029A619B6903F004030593059B73
:102CF800C0230A9301230C930AA9214802F05AF928
:102D0800A8E7224BDA6942F00402DA61DA6902F0D4
:102D180004020692069A9A6942F008029A619B692F
:102D280003F008030793079BC0230A9301230C931E
:102D38000AA9144802F03EF98CE7144BDA6942F00C
:102D48000802DA61DA6902F008020892089A9A69B8
:102D580042F004029A619B6903F004030993099BFA
:102D680003230A9301230C930AA9054802F022F9C8
:102D780070E700BF0004004000080040000C00405D
:102D880000080140000C0140000001400010024012
:102D980010B588B00023049305930693079303683E
:102DA800254A934204D0254A934230D008B010BD3A
:102DB800234B9A6942F008029A619A6902F0080264
:102DC8000192019A9A6942F004029A619B6903F0A0
:102DD80004030293029B032304930224059407949B
:102DE80004A9184802F0E6F84FF410630493059418
:102DF800079404A9144802F0DDF8144A536823F034
:102E0800C00343F0E06343F040035360CEE70C4B4C
:102E18009A6942F010029A619B6903F010030393C8
:102E2800039B4FF47073049302230593079304A93B
:102E3800074802F0BFF8B9E7002C01400034014010
:102E480000100240000C0140000801400000014051
:102E58000010014010B596B00024129413941494F5
:102E680015941094119409940A940B940C940D944D
:102E78000E940F942022214601A80AF06FFA3B48CD
:102E88003B4B03604460846040F60F63C360046199
:102E980044618023836104F00BF900284BD14FF47F
:102EA8008053129312A9314804F0B0FC002845D190
:102EB8002E4804F055F9002843D1002310931193AC
:102EC80010A92A4807F002FF00283DD16023099382
:102ED80000220A920B920C920D920E920F9209A95F
:102EE800224804F086FA002831D1042209A91F4893
:102EF80004F07FFA70BB082209A91C4804F079FA8B
:102F080058BB0C2209A9194804F073FA40BB0023E6
:102F1800019302930393049305934FF4005206928E
:102F2800089301A9114807F00FFFE0B90F48FFF710
:102F38002FFF16B010BDFFF709FCB0E7FFF706FC3E
:102F4800B6E7FFF703FCB8E7FFF700FCBEE7FFF7BB
:102F5800FDFBCAE7FFF7FAFBCDE7FFF7F7FBD0E782
:102F6800FFF7F4FBD3E7FFF7F1FBDFE72C050020C1
:102F7800002C014010B596B00024129413941494B8
:102F880015941094119409940A940B940C940D942C
:102F98000E940F942022214601A80AF0DFF93B483D
:102FA8003B4B03604460846040F60F63C360046178
:102FB80044618023836104F07BF800284BD14FF4EF
:102FC8008053129312A9314804F020FC002845D1FF
:102FD8002E4804F0C5F8002843D10023109311931C
:102FE80010A92A4807F072FE00283DD160230993F2
:102FF80000220A920B920C920D920E920F9209A93E
:10300800224804F0F6F9002831D1042209A91F4802
:1030180004F0EFF970BB082209A91C4804F0E9F98B
:1030280058BB0C2209A9194804F0E3F940BB002356
:10303800019302930393049305934FF4005206926D
:10304800089301A9114807F07FFEE0B90F48FFF780
:103058009FFE16B010BDFFF779FBB0E7FFF776FBD0
:10306800B6E7FFF773FBB8E7FFF770FBBEE7FFF7BC
:103078006DFBCAE7FFF76AFBCDE7FFF767FBD0E711
:10308800FFF764FBD3E7FFF761FBDFE7C40300202A
:103098000034014003680A4A934203D0094A934224
:1030A80007D0704702F56442936923F40063936183
:1030B800704702F55C42936923F400539361F0E78B
:1030C800002C01400034014008B50368B3F1804F7B
:1030D80009D01D4A934215D01C4A93421DD01C4A60
:1030E800934225D008BD1B4AD36923F00103D3615D
:1030F8004FF40041184802F079F80821174802F007
:1031080075F8EFE702F50332D36923F00203D361C0
:10311800C021114802F06AF8E4E702F50232D369E7
:1031280023F00403D361C0210C4802F05FF8D9E70B
:1031380002F50132D36923F00803D361032106485D
:1031480002F054F8CEE700BF000400400008004039
:10315800000C00400010024000080140000C014033
:1031680008B50A480A4B03604FF4E1334360002373
:103178008360C36003610C2242618361C36107F00D
:1031880035FF00B908BDFFF7E1FAFBE7FC050020B1
:103198000038014070B586B000230293039304936E
:1031A80005930268334B9A4201D006B070BD0446BD
:1031B80003F558439A6942F480429A619A6902F485
:1031C80080420092009A9A6942F004029A619B69CF
:1031D80003F004030193019B4FF40073029302234D
:1031E800039303230593244E02A9304601F0E2FE1F
:1031F8004FF48063029300250395049502A9304695
:1032080001F0D8FE1D481E4B036010234360856003
:103218008023C3600561456185614FF40053C36134
:1032280000F0C4FAF8B9154BA3635C621548164B55
:1032380003600023436083608022C26003614361AE
:1032480083614FF40053C36100F0B0FA70B90D4BBD
:10325800E3635C6200221146252000F0EDF9252089
:1032680000F0FAF9A1E7FFF771FADCE7FFF76EFA69
:10327800EDE700BF0038014000080140B805002014
:1032880044000240740500205800024002680D4BBB
:103298009A4200D0704710B504460B4A936923F44C
:1032A800804393614FF4C061084801F09FFFA06B11
:1032B80000F0C8FAE06B00F0C5FA252000F0DAF952
:1032C80010BD00BF00380140001002400008014056
:1032D800FFF772FB0B480C490C4A002302E0D45854
:1032E800C4500433C4188C42F9D3094A094C00234A
:1032F80001E013600432A242FBD30AF0E3F8FFF7BF
:1033080059FA704700000020DC0100205C0F01081A
:10331800E0010020BC070020FEE77047704700006E
:1033280010B5064B4FF0FF321A6100241C61DA60B9
:10333800DC60FFF7F3FF204610BD00BF001002401D
:1033480010B504460E4B1A784FF47A73B3FBF2F3B8
:103358000C4A1068B0FBF3F000F094F968B90F2C30
:1033680001D901200AE0002221464FF0FF3000F089
:1033780063F9054B1C60002000E0012010BD00BF70
:103388000C000020080000201000002008B5074AA3
:10339800136843F010031360032000F03BF90F207B
:1033A800FFF7CEFFFFF72EFA002008BD00200240ED
:1033B800034A1168034B1B780B441360704700BF26
:1033C800440600200C000020014B1868704700BF1D
:1033D80044060020014B1868704700BF1000002009
:1033E80010B5084B1C78844201D1002010BD18701C
:1033F800054B1868FFF7A4FF0028F7D0014B1C7095
:10340800F4E700BF0C00002010000020014B1878E2
:10341800704700BF0C00002038B50446FFF7D4FF02
:103428000546B4F1FF3F02D0044B1B781C44FFF75C
:10343800CBFF401BA042FAD338BD00BF0C000020D0
:103448004FF0E022136923F00203136170474FF035
:10345800E022136943F00203136170470048704784
:10346800000A0101014B1868000C7047002004E0B5
:10347800024B1868C0F30B00704700BF002004E03F
:10348800014BD3F8E807704700F0FF1F014BD3F852
:10349800EC07704700F0FF1F014BD3F8F0077047A7
:1034A80000F0FF1F024A536843F00103536070475E
:1034B800002004E0024A536823F001035360704778
:1034C800002004E0024A536843F002035360704747
:1034D800002004E0024A536823F002035360704757
:1034E800002004E0024A536843F004035360704725
:1034F800002004E0024A536823F004035360704735
:10350800002004E000280CDB00F01F024009012322
:1035180093402030034A42F82030BFF34F8FBFF367
:103528006F8F704700E100E0002808DB0901C9B28D
:1035380000F1604000F5614080F80013704700F02A
:103548000F000901C9B2014B1954704714ED00E08E
:10355800002807DB00F1604000F5614090F80003A7
:103568000009704700F00F00014B185C0009704714
:1035780014ED00E000B500F00700C0F1070CBCF145
:10358800040F28BF4FF0040C031D062B0FD9C31ED0
:103598004FF0FF3E0EFA0CF021EA000199400EFAB6
:1035A80003FE22EA0E0241EA02005DF804FB002352
:1035B800EEE710B501F00701C1F1070CBCF1040FEB
:1035C80028BF4FF0040C0C1D062C0FD9033920FA24
:1035D80001F44FF0FF3E0EFA0CFC24EA0C041460D0
:1035E8000EFA01FE20EA0E00186010BD0021EEE779
:1035F800BFF34F8F0549CA6802F4E062044B1343D6
:10360800CB60BFF34F8F00BFFDE700BF00ED00E0C8
:103618000400FA05074AD36823F4E0631B041B0C73
:10362800000200F4E060034343F0BF6343F4003357
:10363800D360704700ED00E010B50446054BD8682C
:10364800C0F30220FFF796FF01462046FFF76CFF04
:1036580010BD00BF00ED00E0002807DB00F01F02EE
:10366800400901239340024A42F82030704700BFC6
:1036780000E100E008B5FFF745FF08BD08B5FFF712
:10368800B7FF00000138B0F1807F0BD24FF0E02384
:103698005861054AF02182F823100020986107221A
:1036A8001A6170470120704700ED00E0024BD868AE
:1036B800C0F30220704700BF00ED00E070B50C4673
:1036C80015461E46FFF744FF33462A462146FFF7B4
:1036D80070FF70BD002808DB00F01F0240090123BD
:1036E80093404030014A42F82030704700E100E042
:1036F80000280BDB43094033054A52F8233000F019
:103708001F0023FA00F000F0010070470020704706
:1037180000E100E0002808DB00F01F024009012357
:1037280093406030014A42F82030704700E100E0E1
:1037380000280BDB43098033054A52F8233000F098
:103748001F0023FA00F000F00100704700207047C6
:1037580000E100E0042806D04FF0E022136923F0CE
:103768000403136170474FF0E022136943F0040328
:1037780013617047704708B5FFF7FCFF08BD30B408
:103788000124056CAC40C56B6C60046863604368D9
:10379800102B05D0036899600368DA6030BC704765
:1037A80003689A600368D960F8E7000000283AD0F7
:1037B80010B4024600681D4B984229D81C4B03449C
:1037C8001C49A1FB03131B099B0013641A4BD36309
:1037D800022382F82130016821F47F5121F0300161
:1037E800536894682343D468234314692343546972
:1037F800234394692343D46923430B430360002084
:103808009063012382F8213082F8200010BC7047B1
:103818000A4B03440749A1FB03131B099B001364CC
:10382800074BD363D4E70120704700BF0704024069
:10383800F8FFFDBFCDCCCCCC00000240F8FBFDBFAB
:10384800000402400346002836D001680A6822F0C6
:1038580001020A60016800220A6001684A60016882
:103868008A600168CA600168144A914219D8144AEA
:103878000A441449A1FB0212120992000264124A76
:10388800C263186CD96B012282404A60002098629A
:10389800D86218635863986383F8210083F820007E
:1038A80070470A4A0A440749A1FB0212120992000A
:1038B8000264074AC263E4E7012070470704024034
:1038C800F8FFFDBFCDCCCCCC00000240F8FBFDBF1B
:1038D8000004024070B5044690F82000012820D06A
:1038E800012084F8200094F82100C0B2012804D0F7
:1038F800002384F82030022070BD022084F82100C3
:103908000025A5632668306820F001003060204655
:10391800FFF735FF2268136843F001031360284658
:10392800EAE70220E8E738B5044690F820000128C5
:1039380032D0012084F8200094F82100C0B2012878
:1039480004D0002384F82030022038BD022084F8F7
:1039580021000020A0632568286820F00100286065
:103968002046FFF70CFFE36A5BB12268136843F057
:103978000E0313602268136843F0010313600020EC
:10398800E3E72268136823F00403136022681368CE
:1039980043F00A031360EDE70220D6E7034690F8E8
:1039A8002120D2B2022A06D004228263002280F8A3
:1039B80020200120704701680A6822F00E020A6080
:1039C80001680A6822F001020A60026CC06B0121DA
:1039D80001FA02F2426083F82110002083F82000E7
:1039E8007047000008B590F82130DBB2022B03D0F5
:1039F80004238363012008BD0268136823F00E03C3
:103A080013600268136823F00103136003684C4ACB
:103A180093424ED9783A934224D01432934230D00C
:103A2800143293422FD0143293422FD0143293423F
:103A38002FD0143293422FD0143293422FD002F554
:103A4800627293422ED0143293422DD01432934294
:103A58002CD01432934202D04FF4803203E04FF45A
:103A6800805200E00122374B5A60012380F8213050
:103A7800002380F82030436B002B5ED0984700204D
:103A8800B9E71022EFE74FF48072ECE74FF4805269
:103A9800E9E74FF48032E6E74FF48012E3E74FF0AE
:103AA8008072E0E70122DEE71022DCE74FF4807243
:103AB800D9E7254A934224D01432934225D01432B0
:103AC800934224D01432934224D01432934224D007
:103AD8001432934224D01432934224D002F56272F5
:103AE800934223D01432934222D01432934221D0ED
:103AF8001432934202D04FF4803203E04FF48052E4
:103B080000E00122114B5A60AFE71022FAE74FF4A8
:103B18008072F7E74FF48052F4E74FF48032F1E710
:103B28004FF48012EEE74FF08072EBE70122E9E7ED
:103B38001022E7E74FF48072E4E700205BE700BF5C
:103B480080000240000402400800024000000240D9
:103B58002DE9F843044690F82130DBB2022B07D058
:103B680004238363002380F820300120BDE8F88314
:103B78008846164603681A6812F0200F25D161BBE3
:103B8800A14A934251D01432934253D014329342F3
:103B980052D01432934252D01432934252D014323B
:103BA800934252D01432934252D002F56272934239
:103BB80051D01432934250D0143293424FD0143221
:103BC800934207D04FF4003730E04FF4807383639B
:103BD8000120CBE74FF4005728E08B4A934241D0AD
:103BE8001432934240D0143293423FD0143293425D
:103BF8003FD0143293423FD0143293423FD0143214
:103C080093423FD002F5627293423ED014329342FF
:103C18003DD0143293423CD01432934202D04FF438
:103C2800802703E04FF4804700E00227FFF7CCFB32
:103C3800814640E02027F9E74FF40077F6E74FF494
:103C48000057F3E74FF40037F0E74FF40017EDE7BC
:103C58004FF00077EAE70227E8E72027E6E74FF486
:103C68000077E3E70427E1E74027DFE74FF48067C1
:103C7800DCE74FF48047D9E74FF48027D6E74FF4C5
:103C88008007D3E74FF08067D0E70427CEE74027C7
:103C9800CCE74FF48067C9E74FF4004300E00823FE
:103CA8001A4214BF01230023002B40F09D80B6F177
:103CB800FF3F40F0B1802368544DAB4240F2BF80D3
:103CC800534A12683A420CBF01250025002D00F026
:103CD800BD804E4A93423FD902F5607212684A4944
:103CE8008B42DCD014318B421ED014318B421DD054
:103CF80014318B421DD014318B421DD014318B42AC
:103D08001DD014318B421DD001F562718B421CD03D
:103D180014318B421BD014318B421AD014318B4290
:103D2800BAD04FF40023BBE78023B9E74FF4006310
:103D3800B6E74FF40043B3E74FF40023B0E74FF47E
:103D48000003ADE74FF00063AAE70823A8E7802344
:103D5800A6E74FF40063A3E72E4A12682A498B426C
:103D680024D014318B4227D014318B4226D0143101
:103D78008B4226D014318B4226D014318B4226D068
:103D880014318B4226D001F562718B4225D0143153
:103D98008B4224D014318B4223D014318B4202D071
:103DA8004FF4002303E04FF4004300E008231A42D5
:103DB80014BF0123002377E78023F8E74FF400635B
:103DC800F5E74FF40043F2E74FF40023EFE74FF431
:103DD8000003ECE74FF00063E9E70823E7E78023F7
:103DE800E5E74FF40063E2E7236CE26B012000FA99
:103DF80003F35360A36B0343A36384F821000023F8
:103E080084F82030B2E600BF08000240800002407B
:103E1800000402400000024036B1FFF7D5FAA0EBDB
:103E28000900B0427FF647AFA36B43F02003A363BA
:103E3800012084F82100002384F8203096E6934A74
:103E480012683A420CBF012500253FE7B8F1000F80
:103E580040F091808E4A934249D9783A934224D0CF
:103E6800143293422BD0143293422AD01432934204
:103E78002AD0143293422AD0143293422AD01432D0
:103E880093422AD002F56272934229D014329342A7
:103E980028D01432934227D01432934202D04FF4E0
:103EA800003303E04FF4005300E00223794A5360E3
:103EB800012384F82130002084F8200056E62023CE
:103EC800F4E74FF40073F1E74FF40053EEE74FF4D3
:103ED8000033EBE74FF40013E8E74FF00073E5E732
:103EE8000223E3E72023E1E74FF40073DEE76A4AA1
:103EF800934224D01432934225D01432934224D0D2
:103F08001432934224D01432934224D01432934270
:103F180024D01432934224D002F56272934223D003
:103F28001432934222D01432934221D01432934255
:103F380002D04FF4003303E04FF4005300E00223B3
:103F4800524A5360B4E72023FAE74FF40073F7E7C7
:103F58004FF40053F4E74FF40033F1E74FF4001344
:103F6800EEE74FF00073EBE70223E9E72023E7E7EA
:103F78004FF40073E4E7464A934243D9783A9342B0
:103F880024D01432934225D01432934224D01432D0
:103F9800934224D01432934224D01432934224D032
:103FA8001432934224D002F56272934223D0143221
:103FB800934222D01432934221D01432934202D039
:103FC8004FF4802303E04FF4804300E00423314A98
:103FD800536070E74023FAE74FF48063F7E74FF444
:103FE8008043F4E74FF48023F1E74FF48003EEE7D2
:103FF8004FF08063EBE70423E9E74023E7E74FF45A
:104008008063E4E7244A934224D01432934225D0B3
:104018001432934224D01432934224D0143293425F
:1040280024D01432934224D01432934224D002F57F
:104038006272934223D01432934222D014329342B4
:1040480021D01432934202D04FF4802303E04FF47E
:10405800804300E004230D4A53602CE74023FAE72D
:104068004FF48063F7E74FF48043F4E74FF480237D
:10407800F1E74FF48003EEE74FF08063EBE70423AA
:10408800E9E74023E7E74FF48063E4E700000240F4
:1040980080000240000402400800024038B5C36BAB
:1040A8001A6804682568016C04238B40134200F0E9
:1040B8009B8015F0040F00F09780236813F0200F01
:1040C80003D1236823F00403236003689A4A9342C8
:1040D80046D9783A934224D01432934228D01432E5
:1040E800934227D01432934227D01432934227D0D8
:1040F8001432934227D01432934227D002F56272C9
:10410800934226D01432934225D01432934224D0BD
:104118001432934202D04FF4802203E04FF48042DD
:1041280000E00422854B5A60C36A03B1984738BD42
:104138004022F7E74FF48062F4E74FF48042F1E75A
:104148004FF48022EEE74FF48002EBE74FF08062F5
:10415800E8E70422E6E74022E4E74FF48062E1E77B
:10416800774A934224D01432934225D01432934292
:1041780024D01432934224D01432934224D01432DF
:10418800934224D01432934224D002F562729342AF
:1041980023D01432934222D01432934221D01432C5
:1041A800934202D04FF4802203E04FF4804200E0B3
:1041B8000422644B5A60B7E74022FAE74FF4806262
:1041C800F7E74FF48042F4E74FF48022F1E74FF429
:1041D8008002EEE74FF08062EBE70422E9E7402235
:1041E800E7E74FF48062E4E702238B40134200F0D4
:1041F800AB8015F0020F00F0A780236813F0200FA2
:1042080006D1236823F00A032360012380F82130B4
:104218000368494A93424BD9783A934224D01432DE
:1042280093422DD0143293422CD0143293422CD086
:10423800143293422CD0143293422CD0143293422D
:104248002CD002F5627293422BD0143293422AD0BA
:104258001432934229D01432934202D04FF40032E0
:1042680003E04FF4005200E00222344B5A6000236E
:1042780080F82030836A002B3FF459AF984756E7FF
:104288002022F2E74FF40072EFE74FF40052ECE718
:104298004FF40032E9E74FF40012E6E74FF00072FE
:1042A800E3E70222E1E72022DFE74FF40072DCE7D0
:1042B800234A934224D01432934225D01432934295
:1042C80024D01432934224D01432934224D014328E
:1042D800934224D01432934224D002F5627293425E
:1042E80023D01432934222D01432934221D0143274
:1042F800934202D04FF4003203E04FF4005200E042
:104308000222104B5A60B2E72022FAE74FF40072FB
:10431800F7E74FF40052F4E74FF40032F1E74FF4B7
:104328000012EEE74FF00072EBE70222E9E72022E5
:10433800E7E74FF40072E4E780000240000402401F
:10434800080002400000024008238B4013423FF45B
:10435800EEAE15F0080F3FF4EAAE236823F00E0323
:104368002360026CC16B012303FA02F24A60836383
:1043780080F82130002380F82030036B002B3FF4B5
:10438800D6AE9847D3E600BF034690F82000012830
:104398001ED0012083F8200093F82100C0B2012824
:1043A80004D00120002283F8202070470329F9D87F
:1043B800DFE801F00205080B9A620846F2E7DA62C4
:1043C8000020EFE71A630020ECE75A630020E9E7D2
:1043D80002207047034690F82020012A26D00122A7
:1043E80080F8202090F82100C0B2904204D001202B
:1043F800002283F8202070470429F9D8DFE801F06B
:1044080003070A0D100000229A620846F0E7002010
:10441800D862EDE700201863EAE700205863E7E771
:1044280000209862D86218635863E1E70220704759
:1044380090F821007047806B70470000002860D01A
:10444800002960D070B40B68036003F01F020120DC
:10445800904013F0007F15D08C6814F0010F24D021
:104468002A4DAC680443AC608C6814F0020F22D06B
:10447800264DEC680443EC600C6804F0C06CBCF199
:10448800C06F1ED04B6813F0010F2DD01F4A136860
:10449800034313604B6813F0020F2BD01B4A536879
:1044A80003435360002070BC7047184DAC6824EA81
:1044B8000004AC60D8E7154DEC6824EA0004EC6011
:1044C800DAE79208124E023256F8224003F003034C
:1044D8009B000F259D4024EA0504CD6805FA03F3E7
:1044E800234346F82230CDE7084A136823EA00033D
:1044F8001360CFE7054A536823EA0003536000209E
:10450800D1E7012070470120704700BF0004014037
:1045180000000140002848D0002948D010B40468A1
:104528000C6004F01F0C012303FA0CF32248006806
:10453800184227D001224A601F484068184203D019
:10454800486840F00200486000228A60CA6014F09F
:10455800007F2ED002F1804202F5823292681A4220
:1045680001D001228A60144AD2681A4203D08B68AB
:1045780043F002038B6004F0C063B3F1C06F04D052
:10458800002017E000224A60D6E74FEA9C02023278
:104598000A4B53F8222004F003039B0022FA03F38A
:1045A80003F00F03CB60002004E0012070470120D6
:1045B8007047002010BC7047000401400000014013
:1045C800002837D010B58446046804F01F00012382
:1045D80083401A4A11686FEA030E21EA0301116049
:1045E800516821EA03035360DCF8003013F0007FC0
:1045F80022D093680EEA03039360D3680EEA03039C
:10460800D360DCF8003003F0C063B3F1C06F01D0B1
:10461800002012E080080A49023051F8203004F0E6
:104628000304A4000F22A24023EA020341F8203029
:10463800002002E001207047002010BD0004014066
:10464800000001400346084609B95A607047012036
:10465800704710B1016000207047012070470000CA
:1046680008B5036803F01F0201239340044A526906
:104678001A4204D0024A5361436803B1984708BDFF
:1046880000040140036803F01F0301229A40024915
:1046980048691040D840704700040140026802F0A1
:1046A8001F0201239340014A5361704700040140EF
:1046B800026802F01F0201239340014A1361704708
:1046C80000040140044B0022DA61044A136943F0F4
:1046D8000103136101807047480600200020024052
:1046E800194BDB6813F0100305D0184AD36943F05F
:1046F8000203D3611023144AD26812F0040F06D0C3
:104708001249CA6942F00102CA6143F004030E4A21
:10471800D26912F0010F09D00C49CA6942F00402AB
:10472800CA610949CA6922F00102CA6140F201124C
:10473800934202D0044AD3607047034AD36923F0F6
:104748000103D361704700BF0020024048060020E3
:1047580038B58446084614461D46124A136943F480
:10476800A0531361104B9960C3E90445BCF1010FD4
:104778000CD0BCF1020F0ED00B4B05221A7004228C
:104788005A60A1B2FFF79EFF002038BD03221A70BD
:1047980001225A60F5E7044B04221A7002225A607B
:1047A800EFE700BF0020024048060020704770472E
:1047B800F8B5514BDB6813F0100F04D14E4BDB6892
:1047C80013F0040F0BD04D4CA5684FF0FF33A360D6
:1047D800FFF786FF2846FFF7EAFF00232370464BC2
:1047E800DB6813F0200F2BD0434B2022DA60434BB9
:1047F8001B782BB3414B1B78DBB2012B2DD03F4BE1
:104808001B78DBB2022B47D03C4B5A68013A5A60FE
:104818005B68002B4CD1394B1B78DBB2032B5FD084
:10482800364B1B78DBB2042B5FD0344B98680638C4
:10483800FFF7BCFF314B4FF0FF329A6000221A702D
:104848002E4B1B7843B92C4B1A6922F007021A61C8
:104858001A6922F4A0521A61F8BD284B5A68013A25
:104868005A605B687BB1254CA068FFF79FFFA06882
:1048780000F50060A060204A136923F00203136169
:1048880000F00EFBDCE71D4B4FF0FF309860002274
:104898001A70FFF78BFFD3E7174A136923F0040355
:1048A80013610020FFF782FF144B00221A70C7E73C
:1048B800124B9A6802329A609868D3E90467340CFC
:1048C80044EA07443D0CC3E904450B490A6922F050
:1048D80001020A61D3E9042391B2FFF7F3FEAFE7BF
:1048E800064B9868FFF762FFA4E7044B9868023804
:1048F800FFF75CFF9EE700BF00200240480600204B
:104908000A4B1B6913F0800F0BD0084B084A5A60FA
:1049180002F188325A601B6913F0800F03D100201E
:104928007047002070470120704700BF00200240F8
:1049380023016745034A136943F08003136100208C
:10494800704700BF00200240074B1B6913F4007F2B
:1049580007D1054B054A9A6002F188329A60002017
:1049680070470120704700BF0020024023016745BF
:10497800034A136923F4007313610020704700BFD2
:104988000020024008B5FEF779FE08BD014BD86942
:10499800704700BF4806002038B50446FEF714FDEE
:1049A8000546164BDB6813F0010F0AD0B4F1FF3F40
:1049B800F7D024B1FEF708FD401BA042F1D903202F
:1049C8001BE00E4BDB6813F0200F02D00B4B2022AC
:1049D800DA600A4BDB6813F0100F0BD1074BDB6969
:1049E80013F0010F06D1054BDB6813F0040F01D15A
:1049F800002002E0FFF774FE012038BD00200240CD
:104A08002DE9F8431E46244B1B7E012B41D004465A
:104A18000F469046204B01221A764CF25030FFF791
:104A2800BBFF034678BB012C08D0022C03D04FF003
:104A380004091C4607E04FF00209FAE74FF00109A4
:104A4800F7E70134E4B24C451DD22101C1F120023F
:104A5800A1F1200328FA01F106FA02F2114326FA1D
:104A680003F3194389B207EB4400FFF72BFE4CF21E
:104A78005030FFF791FF094B1D6925F001051D61B5
:104A880003460028DDD0044A002111761846BDE807
:104A9800F8830223FAE700BF4806002000200240FE
:104AA800064B0022DA61064B1A6942F004021A61C9
:104AB8001A6942F040021A61704700BF4806002098
:104AC80000200240014B186A704700BF00200240D6
:104AD800044BDB6913F0020F01D000207047A520BA
:104AE800704700BF00200240024BD869C0F3820023
:104AF800704700BF0020024038B505464CF25030E0
:104B0800FFF74AFF00B138BD124B0022DA61124CA0
:104B1800236943F020032361236943F040032361A1
:104B28004CF25030FFF738FF236923F0200323614C
:104B38000028E8D1236943F010032361074B1D8047
:104B48004CF25030FFF728FF236923F0100323614C
:104B5800D9E700BF480600200020024000F8FF1FE8
:104B680038B504464CF25030FFF716FF00B138BD97
:104B78000A4B0022DA610A4D2B6943F010032B61BE
:104B880044F08800074B58804CF25030FFF704FF80
:104B98002B6923F010032B61E9E700BF48060020CA
:104BA8000020024000F8FF1F70B505460C464CF285
:104BB8005030FFF7F1FE00B170BD094B0022DA61F9
:104BC800084E336943F0100333612C804CF25030A7
:104BD800FFF7E2FE336923F010033361ECE700BF0F
:104BE800480600200020024038B5FFF771FFC5B223
:104BF8004CF25030FFF7D0FE00B138BD0C4B00220C
:104C0800DA610C4C236943F020032361236943F0E4
:104C1800400323614CF25030FFF7BEFE236923F0B6
:104C2800200323610028E8D12846FFF765FFE4E761
:104C38004806002000200240F8B50446FFF742FF6E
:104C480020EA0400C5B2C0F30727C0F30746040EE4
:104C58004CF25030FFF7A0FE034608B11846F8BDE5
:104C6800234B0022DA61FFF7BFFF03460028F5D186
:104C780020490A6942F010020A61FF2D0ED123B9BA
:104C8800FF2F15D123B9FF2E1CD10BB9FF2C23D12F
:104C980018490A6922F010020A61DFE7164B1A89DF
:104CA80015401D814CF25030FFF776FE0346E6E7CB
:104CB800114B5A8917405F814CF25030FFF76CFE58
:104CC8000346DFE70C4B9A8916409E814CF2503020
:104CD800FFF762FE0346D8E7074BDA8904EA0200C9
:104CE800D8814CF25030FFF757FE0346D0E700BF9B
:104CF800480600200020024000F8FF1FF8B50446CF
:104D0800FFF7E0FE2043C5B2C0F30727C0F307460C
:104D1800040E4CF25030FFF73FFE034608B1184628
:104D2800F8BD254B0022DA61FFF75EFF0346002835
:104D3800F5D122490A6942F010020A61FF2D0ED10D
:104D480023B9FF2F16D123B9FF2E1ED10BB9FF2C83
:104D580026D11A490A6922F010020A61DFE7184AC7
:104D680013899BB22B4313814CF25030FFF714FE8A
:104D78000346E5E7124A53899BB23B4353814CF201
:104D88005030FFF709FE0346DDE70D4A93899BB2D1
:104D9800334393814CF25030FFF7FEFD0346D5E7CD
:104DA800074AD3899BB22343D3814CF25030FFF793
:104DB800F3FD0346CDE700BF48060020002002406F
:104DC80000F8FF1F254B1B7E012B44D010B504466D
:104DD800224B01221A76036813F0010F0ED04368A4
:104DE800934207D08068FFF789FF40B11B4B002230
:104DF8001A7613E08068FFF71FFFF6E701202368A3
:104E080013F0020F0BD1236813F0040F10D123689D
:104E180013F0080F15D1114B00221A7610BD207C13
:104E2800FFF76AFE0028EED00C4B00221A76F5E751
:104E3800607CFFF795FE0028E9D0084B00221A761F
:104E4800ECE7217E6069FFF7AFFE0028E3D0034B53
:104E580000221A76E2E70220704700BF48060020C9
:104E680010B5044607230360FFF72CFEA060FFF788
:104E78002FFE2074FFF738FE607410BD064B984271
:104E880004D0064BD869C0F387407047034BD869F4
:104E9800C0F38720704700BF04F8FF1F00200240BE
:104EA800064B0022DA61064B1A6942F002021A61C7
:104EB80058611A6942F040021A617047480600209A
:104EC80000200240264B1B7E012B46D070B50546BC
:104ED8000E46234B01221A760368022B20D04CF28F
:104EE8005030FFF759FD90BB4FF0FF333360AC688B
:104EF8000121EA68AB6803EBC223A34228D9204604
:104F0800FFF7CEFF4CF25030FFF746FD154A136904
:104F180023F0020313610146B8B904F50064E8E719
:104F28004CF25030FFF738FD08B1012110E00120A4
:104F3800FFF7B6FD4CF25030FFF72EFD0146094A47
:104F4800136923F00403136102E0346000E00121D7
:104F5800034B00221A76084670BD022108467047A6
:104F6800480600200020024010B5104B1B78DBB922
:104F780003F0FF040E4A136943F4A0531361036856
:104F8800022B0AD0094B01221A70C2685A60806845
:104F98009860FFF785FF204610BD044B02221A7067
:104FA8004068FFF77DFDF6E70124F4E74806002096
:104FB8000020024070B582B00024A446ACE0854DC4
:104FC800AB4210D007D9844DAB420CD005F58035E3
:104FD800AB4208D013E0A5F58015AB4203D005F528
:104FE8007025AB4207D18B68002B5FD0012B58D0BE
:104FF8004261082403E0A5F58015AB42F3D0BEF169
:10500800FF0F55D806464FEA8C0233680F259540A6
:1050180023EA050304FA02F2134333604B6813F0E2
:10502800805F77D06D4B9A6942F001029A619B6963
:1050380003F001030193019B4FEA9C02951C684B06
:1050480053F825600CF00305AD000F23AB4026EAAA
:105058000306644B984232D003F58063984200F00F
:10506800978003F58063984200F0948003F580638D
:10507800984200F0918003F58063984200F08E809A
:1050880003F58063984218D0062319E0CC68B6E788
:10509800CC680434B3E7CC680834B0E7CC680C3487
:1050A800ADE702610824AAE70024A8E70424A6E7DC
:1050B800061DACF108029200A7E7052300E00023D3
:1050C800AB4033430232464D45F822304B6813F467
:1050D800801F65D0444A936843EA0E0393604B6887
:1050E80013F4001F62D0404AD36843EA0E03D3602A
:1050F8004B6813F4003F5FD03B4A536843EA0E0302
:1051080053604B6813F4803F5CD0374A136843EA16
:105118000E0313600CF1010C0B6833FA0CF257D034
:10512800012202FA0CF203EA020E32EA0303F1D179
:105138004B68122B3FF643AF122B3FF660AF01A529
:1051480055F823F0EF4F0008955000089F500008CD
:10515800B150000807500008075000080750000821
:1051680007500008075000080750000807500008BB
:1051780007500008075000080750000807500008AB
:10518800075000080750000899500008A55000086B
:10519800012395E7022393E7032391E704238FE78D
:1051A800114A936823EA0E03936098E70E4AD3687E
:1051B80023EA0E03D3609BE70B4A536823EA0E03E6
:1051C80053609EE7084A136823EA0E031360A1E7B9
:1051D80002B070BD00002210000031100010024023
:1051E80000000140000801400004014000227EE068
:1051F8004FF0050E01E04FF0000E0EFA04F464457E
:1052080052D0FF2B6BD805464FEA820E2C684FF020
:105218000F0C0CFA0EFC24EA0C044FF0040C0CFAE8
:105228000EFC44EA0C042C60C46824EA0303C3603F
:10523800013231FA02F358D0012393400B40F7D0E2
:105248009708BD1C2F4C54F8255002F00304A40005
:105258004FF00F0C0CFA04F606EA050C2A4DA8428A
:10526800C9D005F58065A84212D005F58065A84229
:1052780011D005F58065A84210D005F58065A842D3
:105288000FD005F58065A842B2D04FF0060EB4E7FE
:105298004FF0010EB1E74FF0020EAEE74FF0030EEC
:1052A800ABE74FF0040EA8E7184C256825EA03057C
:1052B8002560656825EA03056560E56825EA030554
:1052C800E560A56825EA0305A560DFF838C0BC1CC1
:1052D8005CF8245025EA06054CF8245091E7051D92
:1052E800A2F1080E4FEA8E0E90E7F0BD013231FAB6
:1052F80002F305D0012393400B40F7D0F0B59FE7A8
:10530800704700BF00000140000801400004014050
:105318008368194201D001207047002070470AB104
:1053280001617047090401617047C36801EA03021B
:1053380021EA030141EA02410161704782B04FF45A
:1053480080330193019B0B430193019B836181612E
:10535800019B836183690193836913F4803F02D0C1
:10536800002002B070470120FBE7704708B5054BE5
:105378005B69034200D108BD024B5861FFF7F5FF96
:10538800F9E700BF00040140034A136823F07F03D4
:10539800084303431360704700000140024A136842
:1053A80043F080031360704700000140024A13680D
:1053B80023F08003136070470000014020BF00BF46
:1053C80070470000044B1A6942F080521A611A694A
:1053D80022F080521A61704700100240014B0122EE
:1053E8001A62704700000E42014B00221A62704791
:1053F80000000E421E4A136823F0E00301680B43C5
:1054080013601C4B5A6822F480325A601A6822F4DE
:1054180080321A60DA6822F48032DA609A6822F4FC
:1054280080329A60436813F4803F04D0114A1368AD
:1054380043F480331360436813F4003F04D00D4AEB
:10544800536843F480335360436813F0010F04D06A
:10545800084A936843F480339360436813F0020F5B
:1054680004D0044AD36843F48033D360704700BF44
:105478000070004000040140014B01221A6170478E
:1054880000000E42014B00221A61704700000E42D4
:1054980090FAA0F0B0FA80F0024B03449B0001227E
:1054A8001A6070472080831090FAA0F0B0FA80F05C
:1054B800024B03449B0000221A607047208083102F
:1054C800064A136923F004031361012903D040BF7E
:1054D80020BF20BF704730BF704700BF00ED00E01D
:1054E80008B50F4A136823F002031360136823F00A
:1054F8000103034313600B4A136943F00403136168
:10550800012906D130BF074A136923F00403136148
:1055180008BD40BFFFF752FFFFF750FFF3E700BF9A
:105528000070004000ED00E0054A136843F00203F4
:105538001360044A136943F00403136130BF7047D2
:105548000070004000ED00E0024A136943F00203D6
:105558001361704700ED00E0024A136923F002036B
:105568001361704700ED00E0024A136943F010032D
:105578001361704700ED00E0024A136923F010033D
:105588001361704700ED00E07047000008B5064B56
:105598005B6913F4803F00D108BDFFF7F5FF024BAC
:1055A8004FF480325A61F7E70004014082B0084B9B
:1055B8001B68084AA2FB03235B0A00FB03F3019361
:1055C80000BF019B5A1E0192002BF9D102B070470F
:1055D80008000020D34D621070B5FDF7F5FE0446B3
:1055E800364A136843F001031360344B1B6813F009
:1055F800020F07D1FDF7E8FE001B0228F5D90324A6
:10560800204670BD2D4D2B6823F0F80343F080032E
:105618002B60FDF7D9FE044600236B60274B5B68BF
:1056280013F00C0F08D0FDF7CFFE001B41F28833B2
:105638009842F3D90324E3E7214B224A1A60224B0C
:105648001868FDF77DFE044608B10124D8E7FDF788
:10565800BBFE0546194A136823F080731360174B85
:105668001B6813F0007F06D0FDF7AEFE401B022832
:10567800F5D90324C4E7114E00237360FDF7A4FE97
:105688000546336823F4102333600C4B1B6813F46E
:10569800003F06D0FDF798FE401B6428F5D9032487
:1056A800AEE7064B1A6822F480221A605A6A42F062
:1056B80080725A6200229A60A2E700BF001002407E
:1056C8000800002000127A0010000020002800F0D6
:1056D800F18170B582B00446036813F0010F2CD035
:1056E800994B5B6803F00C03042B1DD0964B5B6849
:1056F80003F00C03082B12D06368B3F5803F41D048
:10570800002B55D103F1804303F504331A6822F4C2
:1057180080321A601A6822F480221A6037E08A4BB5
:105728005B6813F4803FE7D0874B1B6813F4003F96
:1057380003D06368002B00F0BF81236813F0020FC9
:1057480075D0814B5B6813F00C0F5FD07E4B5B68A4
:1057580003F00C03082B54D02369002B00F08A8037
:105768007A4B01221A60FDF72FFE0546764B1B681F
:1057780013F0020F75D1FDF727FE401B0228F5D95B
:1057880003209EE1704A136843F480331360636812
:1057980043B3FDF719FE05466B4B1B6813F4003F36
:1057A800CBD1FDF711FE401B6428F5D9032088E111
:1057B800B3F5A02F09D0644B1A6822F480321A601E
:1057C8001A6822F480221A60E1E703F18043A3F506
:1057D8003C331A6842F480221A601A6842F4803214
:1057E8001A60D4E7FDF7F0FD0546574B1B6813F424
:1057F800003FA2D0FDF7E8FD401B6428F5D903203F
:105808005FE1514B5B6813F4803FA5D14E4B1B6899
:1058180013F0020F03D02369012B40F04F814A4A4D
:10582800136823F0F803616943EAC103136023682E
:1058380013F0080F33D0A369002B5CD0434B01222F
:10584800C3F88024FDF7C0FD05463F4B5B6A13F0A3
:10585800020F21D1FDF7B8FD401B0228F5D903201E
:105868002FE1394A136823F0F803616943EAC10359
:105878001360DCE7354B00221A60FDF7A5FD0546ED
:10588800314B1B6813F0020FD1D0FDF79DFD401B73
:105898000228F5D9032014E10120FFF787FE2368C9
:1058A80013F0040F00F09680274BDB6913F0805F3C
:1058B80034D1254BDA6942F08052DA61DB6903F0B2
:1058C80080530193019B0125214B1B6813F4807FB2
:1058D80026D0E368012B3DD0002B53D103F1804340
:1058E80003F504331A6A22F001021A621A6A22F0D6
:1058F80004021A6233E0154B0022C3F88024FDF736
:1059080063FD0546104B5B6A13F0020FC7D0FDF725
:105918005BFD401B0228F5D90320D2E00025D3E720
:105928000B4A136843F480731360FDF74DFD064678
:10593800074B1B6813F4807FCBD1FDF745FD801B17
:105948006428F5D90320BCE0001002400000424260
:10595800007000405F4A136A43F001031362E36872
:1059680033B3FDF731FD06465A4B1B6A13F0020F9D
:105978002FD1FDF729FD801B41F288339842F3D9D6
:1059880003209EE0052B09D0524B1A6A22F001022F
:105998001A621A6A22F004021A62E0E74D4B1A6A88
:1059A80042F004021A621A6A42F001021A62D6E749
:1059B800FDF70AFD0646474B1B6A13F0020F08D095
:1059C800FDF702FD801B41F288339842F3D903208A
:1059D80077E0E5B9E369002B72D03E4A526802F0DD
:1059E8000C02082A56D0022B17D03B4B00221A660D
:1059F800FDF7EAFC0446374B1B6813F0007F47D0DD
:105A0800FDF7E2FC001B0228F5D9032059E0314AD2
:105A1800D36923F08053D361DCE72F4B00221A6649
:105A2800FDF7D2FC05462B4B1B6813F0007F06D010
:105A3800FDF7CAFC401B0228F5D9032041E0236A80
:105A4800B3F5803F1AD023494B6823F47413226AB4
:105A5800606A024313434B601F4B01221A66FDF72D
:105A6800B3FC04461B4B1B6813F0007F0ED1FDF7F7
:105A7800ABFC001B0228F5D9032022E0154A536825
:105A880023F40033A1680B435360DCE7002018E0DF
:105A9800002016E0012B16D00E4B5B6803F4803112
:105AA800226A914211D103F47013626A93420ED1B3
:105AB800002006E001207047012002E0012000E0FC
:105AC800002002B070BD0120FBE70120F9E70120AA
