:020000040800F2
:1000000000C00020B5360008312C0008332C000851
:10001000352C0008372C0008392C0008000000009F
:100020000000000000000000000000003B2C000861
:100030003D2C0008000000003F2C0008412C000867
:10004000FD360008FD360008FD360008FD360008C4
:10005000FD360008FD360008FD360008FD360008B4
:10006000FD360008FD360008FD360008FD360008A4
:10007000FD360008FD360008492C0008592C000800
:10008000FD360008FD360008FD360008FD36000884
:10009000FD360008FD360008FD360008FD36000874
:1000A000FD360008FD360008FD360008FD36000864
:1000B000FD360008FD360008FD360008FD36000854
:1000C000FD360008FD360008FD360008FD36000844
:1000D000FD360008692C0008FD360008FD360008D2
:1000E000FD360008FD360008FD360008FD36000824
:1000F000FD360008FD360008FD360008FD36000814
:10010000FD360008FD360008FD360008FD36000803
:10011000FD360008FD360008FD360008FD360008F3
:10012000FD360008FD360008FD360008FD360008E3
:1001300000000000000000000000000000000000BF
:1001400000000000000000000000000000000000AF
:10015000000000000000000000000000000000009F
:10016000000000000000000000000000000000008F
:10017000000000000000000000000000000000007F
:10018000000000000000000000000000000000006F
:10019000000000000000000000000000000000005F
:1001A000000000000000000000000000000000004F
:1001B000000000000000000000000000000000003F
:1001C000000000000000000000000000000000002F
:1001D000000000000000000000000000000000001F
:0401E0005FF8E0F1F3
:1001E80010B5054C237833B9044B13B10448AFF369
:1001F80000800123237010BDE801002000000000EA
:10020800E437010808B5034B1BB103490348AFF3B2
:10021800008008BD00000000EC010020E437010860
:10022800A3F5803A704700BF174B002B08BF134B4C
:100238009D46FFF7F5FF00218B460F461348144AE9
:10024800121A0FF039FE0E4B002B00D098470D4BB9
:10025800002B00D098470020002104000D000D4815
:10026800002802D00C48AFF300800FF01FFF2000D9
:10027800290002F025FC0DF0FFFE00BF0000080079
:10028800000000000000000000000000E80100205D
:10029800440800200000000000000000C03E0108E3
:1002A80000000020E4010020E801002044080020AC
:1002B80010F8012B11F8013B012A28BF9A42F7D008
:1002C800D01A7047034613F8012B002AFBD1181ADD
:1002D8000138704770B54FF0FF0C4CF4E06C1CEA25
:1002E80011541DBF1CEA135594EA0C0F95EA0C0F24
:1002F80000F0DEF82C4481EA030621EA4C5123EA97
:100308004C5350EA013518BF52EA033541F48011C5
:1003180043F4801338D0A0FB02CE4FF00005E1FB78
:1003280002E506F00042E0FB03E54FF00006E1FBC2
:1003380003569CF0000F18BF4EF0010EA4F1FF0405
:10034800B6F5007F64F5407404D25FEA4E0E6D4145
:1003580046EB060642EAC62141EA55514FEAC52056
:1003680040EA5E504FEACE2EB4F1FD0C88BFBCF5D2
:10037800E06F1ED8BEF1004F08BF5FEA500E50F183
:10038800000041EB045170BD06F0004646EA010149
:1003980040EA020081EA0301B4EB5C04C2BFD4EB7B
:1003A8000C0541EA045170BD41F480114FF0000E74
:1003B800013C00F3AB8014F1360FDEBF002001F0E2
:1003C800004170BDC4F10004203C35DA0C341BDC5C
:1003D80004F11404C4F1200500FA05F320FA04F02E
:1003E80001FA05F240EA020001F0004221F0004162
:1003F80010EBD37021FA04F642EB06015EEA430ED5
:1004080008BF20EAD37070BDC4F10C04C4F1200504
:1004180000FA04F320FA05F001FA04F240EA0200B7
:1004280001F0004110EBD37041F100015EEA430E88
:1004380008BF20EAD37070BDC4F1200500FA05F2A8
:100448004EEA020E20FA04F301FA05F243EA020327
:1004580021FA04F001F0004121FA04F220EA020036
:1004680000EBD3705EEA430E08BF20EAD37070BD7C
:1004780094F0000F0FD101F00046400041EB01015C
:1004880011F4801F08BF013CF7D041EA060195F03E
:10049800000F18BF704703F00046520043EB0303F8
:1004A80013F4801F08BF013DF7D043EA06037047E5
:1004B80094EA0C0F0CEA135518BF95EA0C0F0CD0F0
:1004C80050EA410618BF52EA4306D1D181EA030136
:1004D80001F000414FF0000070BD50EA410606BF30
:1004E8001046194652EA430619D094EA0C0F02D175
:1004F80050EA013613D195EA0C0F05D152EA0336BA
:100508001CBF104619460AD181EA030101F00041D7
:1005180041F0FE4141F470014FF0000070BD41F020
:10052800FE4141F4780170BD4FF0FF0C1CEAD05237
:100538001EBF1CEAD15392EA0C0F93EA0C0F6FD03E
:100548001A4480EA010C400218BF5FEA41211ED01C
:100558004FF0006343EA501043EA5111A0FB013108
:100568000CF00040B1F5000F3EBF490041EAD371DD
:100578005B0040EA010062F17F02FD2A1DD8B3F159
:10058800004F40EBC25008BF20F00100704790F0C8
:10059800000F0CF0004C08BF49024CEA502040EA1A
:1005A80051207F3AC2BFD2F1FF0340EAC2507047E0
:1005B80040F400004FF00003013A5DDC12F1190F1E
:1005C800DCBF00F000407047C2F10002410021FA90
:1005D80002F1C2F1200200FA02FC5FEA310040F1A8
:1005E800000053EA4C0308BF20EADC70704792F021
:1005F800000F00F0004C02BF400010F4000F013A59
:10060800F9D040EA0C0093F0000F01F0004C02BF53
:10061800490011F4000F013BF9D041EA0C018FE7C2
:100628000CEAD15392EA0C0F18BF93EA0C0F0AD0C8
:1006380030F0004C18BF31F0004CD8D180EA0100EE
:1006480000F00040704790F0000F17BF90F0004F87
:10065800084691F0000F91F0004F14D092EA0C0F69
:1006680001D142020FD193EA0C0F03D14B0218BFFC
:10067800084608D180EA010000F0004040F0FE4042
:1006880040F40000704740F0FE4040F440007047DE
:1006980081F0004102E000BF83F0004330B54FEA2B
:1006A80041044FEA430594EA050F08BF90EA020F98
:1006B8001FBF54EA000C55EA020C7FEA645C7FEA2B
:1006C800655C00F0E2804FEA5454D4EB5555B8BF4E
:1006D8006D420CDD2C4480EA020281EA030382EABF
:1006E800000083EA010180EA020281EA0303362D51
:1006F80088BF30BD11F0004F4FEA01314FF4801C24
:100708004CEA113102D0404261EB410113F0004F35
:100718004FEA03334CEA133302D0524263EB4303EC
:1007280094EA050F00F0A780A4F10104D5F1200E8A
:100738000DDB02FA0EFC22FA05F2801841F10001E5
:1007480003FA0EF2801843FA05F359410EE0A5F1B9
:1007580020050EF1200E012A03FA0EFC28BF4CF0EA
:10076800020C43FA05F3C01851EBE37101F00045A0
:1007780007D54FF0000EDCF1000C7EEB00006EEBAD
:100788000101B1F5801F1BD3B1F5001F0CD3490837
:100798005FEA30004FEA3C0C04F101044FEA44528E
:1007A80012F5800F80F09A80BCF1004F08BF5FEA15
:1007B800500C50F1000041EB045141EA050130BDF5
:1007C8005FEA4C0C404141EB0101013C28BFB1F507
:1007D800801FE9D291F0000F04BF01460020B1FA52
:1007E80081F308BF2033A3F10B03B3F120020CDA25
:1007F8000C3208DD02F1140CC2F10C0201FA0CF003
:1008080021FA02F10CE002F11402D8BFC2F1200C67
:1008180001FA02F120FA0CFCDCBF41EA0C0190401D
:10082800E41AA2BF01EB0451294330BD6FEA040466
:100838001F3C1CDA0C340EDC04F11404C4F1200251
:1008480020FA04F001FA02F340EA030021FA04F363
:1008580045EA030130BDC4F10C04C4F1200220FABA
:1008680002F001FA04F340EA0300294630BD21FAF8
:1008780004F0294630BD94F0000F83F4801306BFBE
:1008880081F480110134013D4EE77FEA645C18BFB2
:100898007FEA655C29D094EA050F08BF90EA020F49
:1008A80005D054EA000C04BF1946104630BD91EA41
:1008B800030F1EBF0021002030BD5FEA545C05D144
:1008C8004000494128BF41F0004130BD14F5800483
:1008D8003CBF01F5801130BD01F0004545F0FE41F7
:1008E80041F470014FF0000030BD7FEA645C1ABF2C
:1008F800194610467FEA655C1CBF0B46024650EA63
:10090800013406BF52EA033591EA030F41F400218E
:1009180030BD00BF90F0000F04BF0021704730B514
:100928004FF4806404F132044FF000054FF00001E9
:1009380050E700BF90F0000F04BF0021704730B5AA
:100948004FF4806404F1320410F0004548BF40427F
:100958004FF000013EE700BF42004FEAE2014FEAD4
:1009680031014FEA02701FBF12F07F4393F07F4FAF
:1009780081F06051704732F07F4208BF704793F0B2
:100988007F4F04BF41F40021704730B54FF46074C5
:1009980001F0004521F000411CE700BF50EA0102C8
:1009A80008BF704730B54FF000050AE050EA010271
:1009B80008BF704730B511F0004502D5404261EBE1
:1009C80041014FF4806404F132045FEA915C3FF422
:1009D800D8AE4FF003025FEADC0C18BF03325FEABF
:1009E800DC0C18BF033202EBDC02C2F1200300FA70
:1009F80003FC20FA02F001FA03FE40EA0E0021FA95
:100A080002F11444BDE600BF70B54FF0FF0C4CF482
:100A1800E06C1CEA11541DBF1CEA135594EA0C0F34
:100A280095EA0C0F00F0DEF82C4481EA030621EA6F
:100A38004C5123EA4C5350EA013518BF52EA0335AA
:100A480041F4801143F4801338D0A0FB02CE4FF05C
:100A58000005E1FB02E506F00042E0FB03E54FF08C
:100A68000006E1FB03569CF0000F18BF4EF0010E84
:100A7800A4F1FF04B6F5007F64F5407404D25FEA80
:100A88004E0E6D4146EB060642EAC62141EA555133
:100A98004FEAC52040EA5E504FEACE2EB4F1FD0C75
:100AA80088BFBCF5E06F1ED8BEF1004F08BF5FEAF3
:100AB800500E50F1000041EB045170BD06F00046A5
:100AC80046EA010140EA020081EA0301B4EB5C0452
:100AD800C2BFD4EB0C0541EA045170BD41F480114A
:100AE8004FF0000E013C00F3AB8014F1360FDEBF6F
:100AF800002001F0004170BDC4F10004203C35DA4B
:100B08000C341BDC04F11404C4F1200500FA05F3CD
:100B180020FA04F001FA05F240EA020001F000426E
:100B280021F0004110EBD37021FA04F642EB0601E4
:100B38005EEA430E08BF20EAD37070BDC4F10C040E
:100B4800C4F1200500FA04F320FA05F001FA04F2D2
:100B580040EA020001F0004110EBD37041F10001BE
:100B68005EEA430E08BF20EAD37070BDC4F12005C9
:100B780000FA05F24EEA020E20FA04F301FA05F231
:100B880043EA020321FA04F001F0004121FA04F2D9
:100B980020EA020000EBD3705EEA430E08BF20EAA9
:100BA800D37070BD94F0000F0FD101F000464000E3
:100BB80041EB010111F4801F08BF013CF7D041EA65
:100BC800060195F0000F18BF704703F00046520069
:100BD80043EB030313F4801F08BF013DF7D043EA3A
:100BE8000603704794EA0C0F0CEA135518BF95EAF0
:100BF8000C0F0CD050EA410618BF52EA4306D1D177
:100C080081EA030101F000414FF0000070BD50EA95
:100C1800410606BF1046194652EA430619D094EA1F
:100C28000C0F02D150EA013613D195EA0C0F05D109
:100C380052EA03361CBF104619460AD181EA03015D
:100C480001F0004141F0FE4141F470014FF0000015
:100C580070BD41F0FE4141F4780170BD70B54FF0B0
:100C6800FF0C4CF4E06C1CEA11541DBF1CEA135530
:100C780094EA0C0F95EA0C0F00F0A7F8A4EB050412
:100C880081EA030E52EA03354FEA013100F0888009
:100C98004FEA03334FF0805545EA131343EA1263D2
:100CA8004FEA022245EA111545EA10654FEA002687
:100CB8000EF000419D4208BF964244F1FD0404F540
:100CC800407402D25B084FEA3202B61A65EB03059C
:100CD8005B084FEA32024FF480104FF4002CB6EB59
:100CE800020E75EB030E22BFB61A754640EA0C00D9
:100CF8005B084FEA3202B6EB020E75EB030E22BF19
:100D0800B61A754640EA5C005B084FEA3202B6EB59
:100D1800020E75EB030E22BFB61A754640EA9C0018
:100D28005B084FEA3202B6EB020E75EB030E22BFE8
:100D3800B61A754640EADC0055EA060E18D04FEAA6
:100D4800051545EA16754FEA06164FEAC30343EA46
:100D580052734FEAC2025FEA1C1CC0D111F4801F13
:100D68000BD141EA00014FF000004FF0004CB6E70C
:100D780011F4801F04BF01430020B4F1FD0C88BFAB
:100D8800BCF5E06F3FF6AFAEB5EB030C04BFB6EBB6
:100D9800020C5FEA500C50F1000041EB045170BDA9
:100DA8000EF0004E4EEA113114EB5C04C2BFD4EBD6
:100DB8000C0541EA045170BD41F480114FF0000E5A
:100DC800013C90E645EA060E8DE60CEA135594EAD6
:100DD8000C0F08BF95EA0C0F3FF43BAF94EA0C0FD9
:100DE8000AD150EA01347FF434AF95EA0C0F7FF44E
:100DF80025AF104619462CE795EA0C0F06D152EAA2
:100E080003353FF4FDAE1046194622E750EA410685
:100E180018BF52EA43067FF4C5AE50EA41047FF496
:100E28000DAF52EA43057FF4EBAE12E74FF0FF3CFB
:100E380006E000BF4FF0010C02E000BF4FF0010CCC
:100E48004DF804CD4FEA410C7FEA6C5C4FEA430C45
:100E580018BF7FEA6C5C1BD001B050EA410C0CBF94
:100E680052EA430C91EA030F02BF90EA020F0020F6
:100E7800704710F1000F91EA030F58BF994208BF5D
:100E880090422CBFD8176FEAE37040F0010070471A
:100E98004FEA410C7FEA6C5C02D150EA013C07D171
:100EA8004FEA430C7FEA6C5CD6D152EA033CD3D0BC
:100EB8005DF8040B704700BF8446104662468C46B6
:100EC8001946634600E000BF01B5FFF7B7FF0028E9
:100ED80048BF10F1000F01BD4DF808EDFFF7F4FF12
:100EE8000CBF012000205DF808FB00BF4DF808ED9D
:100EF800FFF7EAFF34BF012000205DF808FB00BFC0
:100F08004DF808EDFFF7E0FF94BF012000205DF8E1
:100F180008FB00BF4DF808EDFFF7CEFF94BF012096
:100F280000205DF808FB00BF4DF808EDFFF7C4FF8F
:100F380034BF012000205DF808FB00BF4FEA410CD8
:100F48007FEA6C5C02D150EA013C0AD14FEA430CBB
:100F58007FEA6C5C02D152EA033C02D14FF00000F8
:100F680070474FF0010070474FEA410212F5001236
:100F780015D211D56FF47873B3EB625212D94FEAD8
:100F8800C12343F0004343EA505311F0004F23FAC2
:100F980002F018BF404270474FF00000704750EA17
:100FA800013005D111F0004008BF6FF000407047D4
:100FB8004FF00000704700BF4A0011D212F500122E
:100FC80011D20DD56FF47873B3EB62520ED44FEA99
:100FD800C12343F0004343EA505323FA02F0704719
:100FE8004FF00000704750EA013002D14FF0FF3057
:100FF80070474FF0000070474FEA4102B2F1E043FA
:1010080024BFB3F5001CDCF1FE5C0DD901F0004CE7
:101018004FEAC0024CEA5070B2F1004F40EB830037
:1010280008BF20F00100704711F0804F21D113F163
:101038003872BCBF01F00040704741F480114FEA9C
:101048005252C2F11802C2F1200C10FA0CF320FA25
:1010580002F018BF40F001004FEAC1234FEAD32342
:1010680003FA0CFC40EA0C0023FA02F34FEA4303AC
:10107800CCE77FEA625307D150EA01331EBF4FF035
:10108800FE4040F44000704701F0004040F0FE4050
:1010980040F40000704700BF80F0004002E000BF4D
:1010A80081F0004142001FBF5FEA410392EA030F4B
:1010B8007FEA226C7FEA236C6AD04FEA1262D2EB95
:1010C8001363C1BFD218414048404140B8BF5B429A
:1010D800192B88BF704710F0004F40F4000020F033
:1010E8007F4018BF404211F0004F41F4000121F049
:1010F8007F4118BF494292EA030F3FD0A2F1010293
:1011080041FA03FC10EB0C00C3F1200301FA03F1D0
:1011180000F0004302D5494260EB4000B0F5000FF3
:1011280013D3B0F1807F06D340084FEA310102F1B2
:101138000102FE2A51D2B1F1004F40EBC25008BF64
:1011480020F0010040EA03007047490040EB00002E
:10115800013A28BFB0F5000FEDD2B0FA80FCACF12F
:10116800080CB2EB0C0200FA0CF0AABF00EBC2505C
:1011780052421843BCBFD0401843704792F0000F4A
:1011880081F4000106BF80F400000132013BB5E79D
:101198004FEA41037FEA226C18BF7FEA236C21D013
:1011A80092EA030F04D092F0000F08BF0846704778
:1011B80090EA010F1CBF0020704712F07F4F04D146
:1011C800400028BF40F00040704712F100723CBF59
:1011D80000F50000704700F0004343F0FE4040F483
:1011E800000070477FEA226216BF08467FEA236341
:1011F8000146420206BF5FEA412390EA010F40F42C
:10120800800070474FF0000304E000BF10F0004377
:1012180048BF40425FEA000C08BF704743F096435E
:1012280001464FF000001CE050EA010208BF704779
:101238004FF000030AE000BF50EA010208BF704700
:1012480011F0004302D5404261EB41015FEA010C15
:1012580002BF84460146002043F0B64308BFA3F10D
:101268008053A3F50003BCFA8CF2083AA3EBC253EF
:1012780010DB01FA02FC634400FA02FCC2F120020E
:10128800BCF1004F20FA02F243EB020008BF20F045
:101298000100704702F1200201FA02FCC2F12002AB
:1012A80050EA4C0021FA02F243EB020008BF20EAA0
:1012B800DC7070474FF0FF0C1CEAD0521EBF1CEACE
:1012C800D15392EA0C0F93EA0C0F6FD01A4480EABC
:1012D800010C400218BF5FEA41211ED04FF00063A5
:1012E80043EA501043EA5111A0FB01310CF00040D1
:1012F800B1F5000F3EBF490041EAD3715B0040EAF7
:10130800010062F17F02FD2A1DD8B3F1004F40EBC6
:10131800C25008BF20F00100704790F0000F0CF099
:10132800004C08BF49024CEA502040EA51207F3A5D
:10133800C2BFD2F1FF0340EAC250704740F4000038
:101348004FF00003013A5DDC12F1190FDCBF00F029
:1013580000407047C2F10002410021FA02F1C2F1D7
:10136800200200FA02FC5FEA310040F1000053EA73
:101378004C0308BF20EADC70704792F0000F00F0C1
:10138800004C02BF400010F4000F013AF9D040EAC7
:101398000C0093F0000F01F0004C02BF490011F45B
:1013A800000F013BF9D041EA0C018FE70CEAD15359
:1013B80092EA0C0F18BF93EA0C0F0AD030F0004CD9
:1013C80018BF31F0004CD8D180EA010000F000408D
:1013D800704790F0000F17BF90F0004F084691F04B
:1013E800000F91F0004F14D092EA0C0F01D1420285
:1013F8000FD193EA0C0F03D14B0218BF084608D14E
:1014080080EA010000F0004040F0FE4040F4000097
:10141800704740F0FE4040F4400070474FF0FF0C2A
:101428001CEAD0521EBF1CEAD15392EA0C0F93EA71
:101438000C0F69D0A2EB030280EA010C49024FEAC3
:10144800402037D04FF0805343EA111143EA10137C
:101458000CF000408B4238BF5B0042F17D024FF434
:10146800000C8B4224BF5B1A40EA0C00B3EB510F0F
:1014780024BFA3EB510340EA5C00B3EB910F24BFF8
:10148800A3EB910340EA9C00B3EBD10F24BFA3EB7D
:10149800D10340EADC001B0118BF5FEA1C1CE0D145
:1014A800FD2A3FF650AF8B4240EBC25008BF20F0F8
:1014B800010070470CF0004C4CEA50207F32C2BF4C
:1014C800D2F1FF0340EAC250704740F400004FF0E9
:1014D8000003013A37E792F0000F00F0004C02BF1A
:1014E800400010F4000F013AF9D040EA0C0093F0E4
:1014F800000F01F0004C02BF490011F4000F013B3E
:10150800F9D041EA0C0195E70CEAD15392EA0C0FA5
:1015180008D142027FF47DAF93EA0C0F7FF470AFDD
:10152800084676E793EA0C0F04D14B023FF44CAF20
:1015380008466EE730F0004C18BF31F0004CCAD1B5
:1015480030F000427FF45CAF31F000437FF43CAFF1
:101558005FE700BF4FF0FF3C06E000BF4FF0010C13
:1015680002E000BF4FF0010C4DF804CD4FEA4002F5
:101578004FEA41037FEA226C18BF7FEA236C11D03F
:1015880001B052EA530C18BF90EA010F58BFB2EBF2
:10159800030088BFC81738BF6FEAE17018BF40F072
:1015A800010070477FEA226C02D15FEA402C05D126
:1015B8007FEA236CE4D15FEA412CE1D05DF8040BAB
:1015C800704700BF844608466146FFE70FB5FFF73E
:1015D800C9FF002848BF10F1000F0FBD4DF808EDF6
:1015E800FFF7F4FF0CBF012000205DF808FB00BFE7
:1015F8004DF808EDFFF7EAFF34BF012000205DF841
:1016080008FB00BF4DF808EDFFF7E0FF94BF01208D
:1016180000205DF808FB00BF4DF808EDFFF7D2FF8A
:1016280094BF012000205DF808FB00BF4DF808EDCD
:10163800FFF7C8FF34BF012000205DF808FB00BF9A
:101648004FEA40024FEA41037FEA226C02D15FEA87
:10165800402C08D17FEA236C02D15FEA412C02D1E9
:101668004FF0000070474FF0010070474FEA40020A
:10167800B2F1FE4F0FD34FF09E03B3EB12620DD9B8
:101688004FEA002343F0004310F0004F23FA02F022
:1016980018BF404270474FF00000704712F1610FC9
:1016A80001D1420205D110F0004008BF6FF00040A0
:1016B80070474FF00000704738B5002200230446F9
:1016C8000D46FFF713FC28B920462946BDE83840E7
:1016D80000F00AB8204605F1004100F005F8404244
:1016E80061EB410138BD00BFD0B500220B4B064667
:1016F8000F46FFF789F9FFF75FFC0446FFF70AF981
:101708000022074BFFF780F902460B463046394660
:10171800FEF7C2FFFFF750FC2146D0BD0000F03DA8
:101728000000F04108B5084A13780133DBB21370A2
:10173800142B00D808BD134600221A704FF400512C
:10174800024803F0DEFFF5E7040200200010014024
:1017580008B500F099FF4FF47A7002F04BF800F0EA
:1017680067FF00F089FF00F04FFA00F07DFA00F003
:1017780093FB00F05FFD00F087F900F01BFE0548C1
:101788000EF0F2F904480EF0EFF9322000F050F8AC
:1017980008BD00BF7C3801089C38010808B5FFF770
:1017A800C1FF00F085F800F09FF800F0F5F800F0B0
:1017B800B5FC00F0E3FA01F0F5FF0F4B1B68C01A07
:1017C800B0F57A7F11D90D4B1B7893B100221146E1
:1017D800142000F03FFF094A1378B3FA83F35B093A
:1017E800137001F0DFFF044B18600A2002F002F8C2
:1017F80008BD00F041FFEEE70802002005020020C6
:10180800014B1880704700BF16020020014B188852
:10181800704700BF16020020014B1870704700BFC8
:1018280014020020014B1878704700BF14020020F2
:1018380010B5012804D0044670B1092818D810BD85
:101848000120FFF7E9FF0020FFF7DAFF012220213E
:101858000F4803F050FFF2E70020FFF7DDFF0020FC
:10186800FFF7CEFF00222021094803F044FFE6E7F6
:101878000220FFF7D1FF074BA3FB0430C008FFF796
:10188800BFFF01222021024803F035FFD7E700BF40
:1018980000100140CDCCCCCC08B500222021034853
:1018A80003F029FF0020FFF7B7FF08BD0010014033
:1018B80008B5FFF7B7FF022800D008BDFFF7A6FF5D
:1018C80020B1074A1388013B1380F6E70022202144
:1018D800044803F010FF0020FFF79EFFEDE700BF6C
:1018E800160200200010014010B500F055FC10F160
:1018F800320F03DB124B1B78DBB910BD01F052FF2E
:101908000446104B1B68C31AB3F5FA7FF5D30C4B8A
:101918001B7843B90120FFF78BFF094B01221A708E
:10192800084B1C60E9E7FFF7B7FF054B00221A7068
:10193800F6E7FFF7B1FF024B00221A70DDE700BFA0
:101948000C0200201002002003281CD8DFE800F059
:1019580002090F154FF08043586A00B200225A62FC
:1019680070470A4B586A00B200225A627047084B07
:10197800586A00B200225A627047064B586A00B291
:1019880000225A6270470020704700BF00080040DC
:10199800000C00400004004038B50020FFF7D4FFD9
:1019A8001E4A13681B1A13600120FFF7CDFF1C4A5B
:1019B8001368034413600220FFF7C6FF194A13682F
:1019C800034413600320FFF7BFFF174B1A68101A70
:1019D8001860164A13680133136042F20F7293427B
:1019E8001BD9134B1C680D490A6822441A605D68AC
:1019F8000B4C22682A445A600A4D2A68D3F808C05A
:101A080062449A60DA681044D8600023064A13607A
:101A18002B6023600B60054A136038BD3802002034
:101A280034020020300200202C020020180200207E
:101A38001C02002003281BD8DFE800F002080E145F
:101A48000C4B18680C4B1B6818447047094B5868B6
:101A58000A4B1B6818447047064B9868084B1B686C
:101A680018447047034BD868064B1B6818447047E6
:101A7800002070471C020020380200203402002099
:101A8800300200202C02002008B50421074809F084
:101A9800B5F90421064809F0B1F90421054809F00F
:101AA800ADF90421044809F0A9F908BD6C05002026
:101AB80024050020DC0400209404002008B500223E
:101AC8004FF48051014803F016FE08BD000C014098
:101AD80008B501224FF48051014803F00CFE08BDFF
:101AE800000C014000B583B07F238DF8043000015D
:101AF8008DF80500FFF7E2FF0A23022201A9044836
:101B080004F035FEFFF7E4FF03B05DF804FB00BF07
:101B1800EC03002010B582B061F07F018DF807104A
:101B2800FFF7E0FFFFF7CAFF0A4C0A2301220DF175
:101B38000701204604F01BFE0A2301220DF10601CD
:101B4800204605F020F8FFF7C3FF9DF8060002B015
:101B580010BD00BFEC03002000B583B08DF8041061
:101B68008DF80520FFF7BEFFFFF7A8FF0A23022222
:101B780001A9044804F0FBFDFFF7AAFF03B05DF8D4
:101B880004FB00BFEC03002038B505460C460C22C8
:101B980013210320FFF7E0FF2A4614210320FFF753
:101BA800DBFF224616210320FFF7D6FF80221521EE
:101BB8000320FFF7D1FF0A2001F01CFE38BD00000A
:101BC80070B582B0144661F07F018DF80710FFF7F9
:101BD80089FFFFF773FF0A4E0A2301220DF107015F
:101BE800304604F0C4FD074D0A23224629463046F4
:101BF80004F0C9FFFFF76CFF284602B070BD00BFB4
:101C0800EC0300203C02002008B502E0642001F04B
:101C1800F1FD00210846FFF77DFFEA28F6D1802272
:101C280006210020FFF798FF642001F0E3FD012260
:101C380006210020FFF790FF322001F0DBFD302263
:101C480003210020FFF788FF072201210320FFF767
:101C580083FF072201210220FFF77EFF01221421C2
:101C68000220FFF779FF08BD08B501213220FFF7F0
:101C78008BFF322001F0BEFD08213120FFF784FFE1
:101C88008C2203210846FFF767FF10220421032056
:101C9800FFF762FF892205210320FFF75DFF08BDDA
:101CA80070B5054606222D210020FFF789FF04465E
:101CB8000378407840EA032000B2FFF7A7FA0E4EF7
:101CC8003168FFF7ABFB2860A378E07840EA03208F
:101CD80000B2FFF79BFA36683146FFF79FFB686052
:101CE8002379607940EA032000B2FFF78FFA314682
:101CF800FFF794FBA86070BD0800002070B505468A
:101D0800062233210020FFF75BFF04460378407862
:101D180040EA032000B2FFF779FA144B1968FFF77D
:101D2800BFF9134E3168FFF779FB2860A378E07894
:101D380040EA032000B2FFF769FA0E4B1968FFF773
:101D4800AFF936683146FFF769FB68602379607937
:101D580040EA032000B2FFF759FA074B1968FFF76A
:101D68009FF93146FFF75AFBA86070BD5C0200205E
:101D7800040000205802002054020020F8B501F0A9
:101D880011FD0446384B1868002864D0201AFFF764
:101D980039FA364B18603649FFF740FB0546324B97
:101DA8001C603449FFF742FC00B1334D3348FFF75C
:101DB80077FF3348FFF7A2FF09223B210020FFF7F6
:101DC800FFFE0346027812F0010F27D08278407890
:101DD80040EA022000B22B4A10801979DE7846EAE0
:101DE800012636B2568099795C7944EA012424B2F6
:101DF8009480FFF70BFA2449FFF75CFA234F386009
:101E08003046FFF703FA2049FFF754FA7860204676
:101E1800FFF7FCF91C49FFF74DFAB8602946184B43
:101E28009868FFF747FA0146194D2868FFF738F90F
:101E3800044628601749FFF7EFFB20B115492046F3
:101E4800FFF72EF92860124B1C6800212046FFF787
:101E5800CFFB10B9F8BD1C60FCE70E492046FFF720
:101E680021F90B4B1860F5E7480200204C020020CE
:101E780000007A44CDCCCC3D5839343C780200205F
:101E88006C020020840200209A99193E600200200A
:101E9800500200200000B443F8B500242546264629
:101EA80027461AE0062233210020FFF789FE027830
:101EB800437843EA02231BB21F448278C37843EA7B
:101EC80002231BB21E440279437943EA02231BB260
:101ED8001D44052001F08EFC0134B4F5FA7FE1DBE6
:101EE8003846FFF793F90B49FFF798FA0A4B186041
:101EF8003046FFF78BF90749FFF790FA074B186050
:101F08002846FFF783F90349FFF788FA044B18605E
:101F1800F8BD00BF0000FA435C0200205802002010
:101F28005402002008B50421034803F0DDFB08B182
:101F3800002008BD0120FCE70014014010B504464C
:101F4800FFF7F0FF012808D00A4B00221A80094B3E
:101F58001B88022B0BD0002010BD064B1B88601C71
:101F6800B3EB400FF3DA0133024A1380EFE70120A5
:101F7800F2E700BF9A02002070B50E4615461C46CF
:101F88000146002000F09EF93146012000F09AF940
:101F98002946022000F096F92146032000F092F924
:101FA80070BD000010B50446042000F0CDFA2046AC
:101FB80000F072F90023024A1370024A137010BD30
:101FC800C8020020AC02002010B50E4C4FF0010CE6
:101FD80084F800C00C4C20846184A284E38400242B
:101FE8000CE004F11002084B33F91200FFF70EF968
:101FF8000146204600F096FA0134E4B2032CF0D9E9
:1020080010BD00BFC802002080030020F8B50446B8
:102018000D46174601F0C6FB104B1860104B1C808C
:102028005D809F80644224B2661B3846FFF7EEF855
:102038000C49FFF73FF90C49FFF7F0F9FFF716FBDA
:1020480003B2F01A2C44E11A1C4433441BB222B2E6
:1020580009B200B2FFF7B8FFF8BD00BFC402002004
:10206800BC0200200000964400007A4400487047F3
:10207800CDCC964330B585B00020FFF7DBFC00904F
:102088000120FFF7D7FC01900220FFF7D3FC029054
:102098000320FFF7CFFC0390FFF7E8FF0546002475
:1020A8001DE004AB03EB840353F8102C0E4B53F8DC
:1020B8002400101A0D4941F8240043F82420FFF7A2
:1020C800A5F80B49FFF7F6F82946FFF7F3F8094991
:1020D800FFF7A4F9084B43F824000134E4B2032CB9
:1020E800DFD905B030BD00BF9C020020CC02002023
:1020F8000000C842004017458003002008B5FFF7DC
:10210800B9FF044B1B7803B908BD034800F0BCF9BC
:10211800FAE700BFC802002080030020F8B519487C
:10212800FFF7ECFF184B1B7813B1184B1B781BB14A
:10213800154B1B7863B9F8BD01F034FB144B1B68D1
:10214800C01AB0F5FA6FF3D90120FFF72BFFEFE7BC
:10215800104B1F695C699D69D869FFF787FA06B259
:102168002846FFF783FA05B22046FFF77FFA04B244
:102178003846FFF77BFA33462A46214600B2FFF776
:10218800FBFED8E7BC020020C8020020AC020020F9
:10219800C402002080030020014BB3F900007047FF
:1021A800BC02002070B582B00020FFF743FC044653
:1021B8000120FFF73FFC05460220FFF73BFC0646DF
:1021C8000320FFF737FC009033462A462146024891
:1021D8000DF062FC02B070BDC438010800230DE0A8
:1021E8000022084941F82320074941F823200749DC
:1021F80041F82320064941F823200133032BEFDD62
:10220800704700BFEC020020DC020020CC02002056
:102218009C020020052804DC10F1050F05DB0020D6
:10222800704700F23A7000B27047A0F23A7000B2FC
:102238007047000038B5164D0021284607F0AEFD5E
:102248000421284609F07EFE0821284609F07AFE76
:102258000C21284607F0A2FD0E4C0021204607F06D
:102268009DFD0421204607F099FD0821204607F02E
:1022780095FD0C21204607F091FD2A68536C43F424
:10228800004353642268536C43F40043536438BDDD
:10229800B40500204C040020034600B101234FF48C
:1022A800486202FB03F3064A936353631364D363E0
:1022B800A2F5006253631364D3639363704700BF4E
:1022C80000340140B1F5486F04DA11F5486F03DCBA
:1022D800204901E04FF4486103283AD8DFE800F0CC
:1022E8000211202D494209B2002904DB1A4B596317
:1022F80000229A637047184B00225A634942996337
:102308007047494209B2002904DB134BD963002204
:102318001A647047104B0022DA6349421964704707
:10232800002904DB0D4B196400225A6370470B4BDC
:1023380000221A64494259637047002904DB074B9D
:1023480099630022DA637047044B00229A6349427A
:10235800D963704780F3FFFF00340140002C01402F
:1023680010B5124A00231364D36393635363A2F531
:102378000062D3639363536313640D4C01224021BD
:10238800204603F0B8F901228021204603F0B3F972
:1023980001224FF48071204603F0ADF901224FF479
:1023A8000071204603F0A7F910BD00BF00340140BA
:1023B80000100140002210E009484FEA421C00EBDF
:1023C8004213084999600849D960084919610021F0
:1023D800D961996140F80C100132032AECDD70478D
:1023E80000030020CDCCCC3E9A99193ECDCCCC3DF3
:1023F800F8B504460068FEF753FE05466061E169DA
:10240800FEF750FEE0611C49FFF710F908B11A4BBE
:10241800E3611A49E069FFF7EBF808B1174BE3618C
:10242800A1692846FEF73CFE0746A1682846FEF744
:1024380041FF0646E169E068FEF73CFF0146304689
:10244800FEF730FE064639462069FEF733FF01469F
:102458003046FEF727FE6060A5610949FFF7E6F8F8
:1024680008B1074B636007496068FFF7C1F808B116
:10247800044B63606068F8BD0080BB440080BBC447
:1024880000004845000048C5F0B59BB00646224A02
:10249800136801331360002400E00134032C32DC9C
:1024A80056F824101D4800EB4410FFF7A1FFFFF772
:1024B800DDF800B2FFF7AEFE0546FEF7A7FE231DC6
:1024C80046F82300144B1B68312BE6D96301134AE5
:1024D800D758049556F82400FEF73EFACDE90201D4
:1024E8003846FEF739FACDE9000123460C4A502157
:1024F80006A80DF073FB06A8FDF7E4FE81B206A856
:1025080000F016FAC9E7044B1B68312B02D9024BBD
:1025180000221A601BB0F0BDFC020020000300205E
:10252800DC38010803280AD84001064B19507047C7
:102538005A01044881500133032BF9DD7047002309
:10254800FAE700BF0003002003281AD80E4A410109
:1025580002EB40100023436043618361C361535021
:10256800704709484FEA421C00EB421100234B60B8
:102578004B618B61CB6140F80C300132032AF0DDEE
:1025880070470022FAE700BF00030020032808D89C
:1025980010B4044C04EB40108160C260036110BCAD
:1025A8007047704700030020A8B1164B20221A611B
:1025B800154B5A68144B5B689B1A312BFAD9114B8F
:1025C8004FF400121A61104B5A680F4B5B689B1A44
:1025D8002A2BFAD970470B4B20221A610A4B5A68EA
:1025E800094B5B689B1A182BFAD9064B4FF400125B
:1025F8001A61054B5A68044B5B689B1A382BFAD949
:10260800704700BF000C0140001000E038B5000220
:1026180040EA014042EA0005172406E025FA04F0E2
:1026280000F00100FFF7C0FF013C002CF6DA38BDCE
:102638004FF0E022D2F8FC3D43F08073C2F8FC3D35
:10264800034B00225A601A6842F001021A60704770
:10265800001000E0F8B507460E461546002405E0D0
:102668002A4631463846FFF7D1FF0134062CF7DDFC
:10267800012001F0BFF8F8BD08B500221146104648
:10268800FFF7E8FF08BD000008B50122024903482A
:102698000BF009FC08BD00BFA80300208406002039
:1026A8002DE9F04794B00CAB01930EAB009310AB3F
:1026B80012AA6A490DF0C8FA041E40F398806849C6
:1026C80012A8FDF7F5FD08B9032C3ADC654912A8F4
:1026D800FDF7EEFD002840F08280012C7FDD624985
:1026E80010A8FDF7E5FD00283CD0604910A8FDF7CB
:1026F800DFFD002839D05E4910A8FDF7D9FD002874
:1027080039D05C4910A8FDF7D3FD00286FD15A4B8A
:102718009868FEF721F902460B4658480DF0BCF9B7
:1027280057480DF021FA574B01221A7001F03AF878
:10273800554B1860002211464FF4FA70FFF766FCFB
:1027480055E010A80BF08FFC04460EA80BF08BFC8C
:1027580005460CA80BF087FC02B229B220B2FFF79D
:1027680055FC44E0FFF71EFD41E0FFF737FD474801
:102778000DF0FAF93BE0464B5E689F68454AD2F88F
:102788000080D2F80490D2F808A01868FEF7E4F8A0
:1027980004460D46404B1868FEF7DEF8CDE90A01FD
:1027A8005046FEF7D9F8CDE908014846FEF7D4F8B7
:1027B800CDE906014046FEF7CFF8CDE904013846D9
:1027C800FEF7CAF8CDE902013046FEF7C5F8CDE9B3
:1027D800000122462B4631480DF05EF907E03049EA
:1027E80012A8FDF765FD054608B9032C02DC14B0F4
:1027F800BDE8F08710A80BF033FCFEF7FDFB074699
:102808000EA80BF02DFCFEF7F7FB04460CA80BF006
:1028180027FCFEF7F1FB064608E0174B03EB4513D0
:102828009F60DC601E610022DA610135032DF4DD52
:102838003846FEF791F8804689463046FEF78CF810
:10284800CDE902012046FEF787F8CDE900014246AE
:102858004B4614480DF020F9C9E700BFF8380108C5
:10286800083901080C390108103901081439010820
:102878003C3901087C39010800030020843901082B
:10288800B0390108C8020020C40200201C39010820
:10289800780200206C020020500200204039010814
:1028A800D4390108D83901080268144B9A4200D07B
:1028B800704710B5124B1B780D2B0BD00A2B09D083
:1028C800104A12783E2A08D8501C0E4908700E4942
:1028D8008B5402E00B4B1B783BB9094900230B7062
:1028E80001220A480BF0DFFA10BD07480024C4543F
:1028F800FFF7D6FE034B1C70EFE700BF003801401E
:10290800A8030020A9030020AC03002084060020AF
:1029180000B583B001904FF6FF73012201A9034867
:102928000AF072FA019803B05DF804FB84060020EF
:1029380001B9704708B50A464FF47A730146024850
:102948000AF062FA08BD00BF8406002000B583B013
:102958000E4B5A6942F001025A615B6903F00103A8
:102968000193019B002211460E2001F053F80E201E
:1029780001F060F8002211460F2001F04BF80F20FB
:1029880001F058F803B05DF804FB00BF00100240E6
:10299800F0B589B0002404940594069407942A4B52
:1029A8009A6942F010029A619A6902F01002009244
:1029B800009A9A6942F020029A619A6902F020020C
:1029C8000192019A9A6942F004029A619A6902F0A6
:1029D80004020292029A9A6942F008029A619B697B
:1029E80003F008030393039B184F224642F2200189
:1029F800384602F080FE164E01224FF480513046D0
:102A080002F079FE42F2200304930125059506940D
:102A18000223079304A9384602F0B8FC4FF4805308
:102A28000493059506940323079304A9304602F0FE
:102A3800ADFC042304930594069504A9054802F007
:102A4800A5FC09B0F0BD00BF001002400010014015
:102A5800000C01400014014072B6FEE700B591B0C9
:102A68002822002106A80DF027FA002301930293DB
:102A7800039304930593012206924FF4803307933E
:102A88000A9202220D920E934FF4E0130F9306A8B8
:102A980003F008F880B90F23019302210291002363
:102AA80003934FF480620492059301A803F060FA3F
:102AB80020B911B05DF804FBFFF7CEFFFFF7CCFF9C
:102AC80008B500F051FEFFF7C9FFFFF761FFFFF7F8
:102AD8003DFF00F0ADF900F0DDF900F00DFA00F06F
:102AE8003DFA00F0A5FB00F033FC00F027FD00F0F4
:102AF80005F8FEF72DFEFEF751FEFCE708B50D4878
:102B08000D4B03604FF48273436000238360C360FE
:102B1800036143614FF400728261C36103624362DF
:102B280083620A23C36203F0B0FD00B908BDFFF752
:102B380093FFFBE7EC0300200038004010B586B097
:102B4800002302930393049305930268174B9A4258
:102B580001D006B010BD03F5EC33DA6942F48042C7
:102B6800DA61DA6902F480420092009A9A6942F0C6
:102B780008029A619B6903F008030193019B4FF4D3
:102B8800204302930223039303230593084C02A9CD
:102B9800204602F0FBFB4FF480430293002303938B
:102BA800049302A9204602F0F1FBD2E70038004066
:102BB800000C014008B50268074B9A4200D008BDD6
:102BC800064AD36923F48043D3614FF46041044833
:102BD80002F0F8FCF3E700BF0038004000100240A4
:102BE800000C014082B00E4B9A6942F001029A61D2
:102BF8009A6902F001020092009ADA6942F0805262
:102C0800DA61DB6903F080530193019B054A53683D
:102C180023F0E06343F00073536002B0704700BFD5
:102C28000010024000000140FEE7FEE7FEE7FEE775
:102C3800FEE770477047704708B500F0A7FD08BD6C
:102C480008B5024801F016FC08BD00BF4006002088
:102C580008B5024801F00EFC08BD00BFFC050020C5
:102C680008B502480AF0C6FE08BD00BF8406002069
:102C780070470120704708B50DF012FA162303605B
:102C88004FF0FF3008BD08B54FF0FF31FFF7F3FFF5
:102C9800FEE770B50C461646002506E0AFF3008047
:102CA800214601F8010B01350C46B542F6DB3046EA
:102CB80070BD70B50C461646002504E014F8010BEB
:102CC800FFF726FE0135B542F8DB304670BD4FF000
:102CD800FF3070474FF400534B60002070470120CD
:102CE8007047002070470EB44FF0FF3003B07047B4
:102CF80008B50DF0D5F90A2303604FF0FF3008BD81
:102D080008B50DF0CDF9022303604FF0FF3008BD80
:102D18004FF0FF3070474FF400534B60002070476E
:102D280008B50DF0BDF91F2303604FF0FF3008BD53
:102D380008B50DF0B5F90B2303604FF0FF3008BD5F
:102D480008B50DF0ADF90C2303604FF0FF3008BD56
:102D580010B503460C4A0D490D48006840B10C48AF
:102D680000680344521A934206D8094A136010BDFA
:102D78000748084C0460F2E70DF092F90C23036051
:102D88004FF0FF30F3E700BF00C000200004000050
:102D98004804002048080020704700001F4B5B686B
:102DA80003F00C03042B11D0082B13D0002B31D1C6
:102DB8001B4B1C4A1A60194B5B68C3F303131A4A6E
:102DC800D15C174A1368CB4013607047144B154AFF
:102DD8001A60F0E7114A53685268C3F38343023319
:102DE80012F4803F05D1114A02FB03F30C4A136029
:102DF800E1E70A4A526812F4003F05D00B4A02FB89
:102E080003F3074A1360D6E7064A02FB03F3044AB2
:102E18001360D0E7024B034A1A60CCE70010024067
:102E28001000002000127A00103A010800093D0045
:102E380000B58DB02422002103A80DF03DF8002331
:102E48000193029312484FF080420260436083600E
:102E58004FF6FF72C260036183610323039301236A
:102E68000593099303A905F0EBFF50B900230193DB
:102E7800029301A9064809F02FFD28B90DB05DF8A5
:102E880004FBFFF7E9FDF1E7FFF7E6FDF6E700BF12
:102E98006C05002000B58DB02422002103A80DF098
:102EA8000BF80023019302931148124A0260436011
:102EB80083604FF6FF72C26003618361032303934B
:102EC80001230593099303A905F0BAFF50B900231C
:102ED8000193029301A9064809F0FEFC28B90DB038
:102EE8005DF804FBFFF7B8FDF1E7FFF7B5FDF6E77E
:102EF800240500200004004000B58DB024220021E4
:102F080003A80CF0D9FF0023019302931148124A39
:102F18000260436083604FF6FF72C26003618361A1
:102F28000323039301230593099303A905F088FF5D
:102F380050B900230193029301A9064809F0CCFC7B
:102F480028B90DB05DF804FBFFF786FDF1E7FFF740
:102F580083FDF6E7DC0400200008004000B58DB0D2
:102F68002422002103A80CF0A7FF00230193029359
:102F78001148124A0260436083604FF6FF72C260D4
:102F8800036183610323039301230593099303A931
:102F980005F056FF50B900230193029301A9064892
:102FA80009F09AFC28B90DB05DF804FBFFF754FD51
:102FB800F1E7FFF751FDF6E794040020000C00400C
:102FC80082B003680E4A934204D00E4A93420CD052
:102FD80002B070470C4B9A6942F400629A619B698F
:102FE80003F400630093009BF2E7074B9A6942F4ED
:102FF80000529A619B6903F400530193019BE7E730
:10300800002C0140003401400010024000B58FB090
:1030180000230A930B930C930D930368B3F1804F2D
:103028000BD04B4A93423FD04A4A934258D04A4A1F
:10303800934271D00FB05DF804FB03F50433DA69ED
:1030480042F00102DA61DA6902F001020192019AA2
:103058009A6942F004029A619A6902F004020292A3
:10306800029A9A6942F008029A619B6903F0080380
:103078000393039B4FF400430A930AA9374802F0CD
:1030880085F908230A9300230B930C930AA9344863
:1030980002F07CF9334A536823F4407343F0E06349
:1030A80043F480735360C5E72F4BDA6942F002029C
:1030B800DA61DA6902F002020492049A9A6942F02B
:1030C80004029A619B6903F004030593059BC023DE
:1030D8000A9301230C930AA9204802F057F9A9E79B
:1030E800214BDA6942F00402DA61DA6902F004027B
:1030F8000692069A9A6942F008029A619B6903F05F
:1031080008030793079BC0230A9301230C930AA97A
:10311800134802F03BF98DE7134BDA6942F00802D5
:10312800DA61DA6902F008020892089A9A6942F0AC
:1031380004029A619B6903F004030993099B032322
:103148000A9301230C930AA9044802F01FF971E7B6
:103158000004004000080040000C00400008014046
:10316800000C0140000001400010024010B588B07A
:10317800002304930593069307930368254A934213
:1031880004D0254A934230D008B010BD234B9A6929
:1031980042F008029A619A6902F008020192019AC3
:1031A8009A6942F004029A619B6903F0040302934E
:1031B800029B0323049302240594079404A9184846
:1031C80002F0E4F84FF4106304930594079404A9FB
:1031D800144802F0DBF8144A536823F0C00343F0A4
:1031E800E06343F040035360CEE70C4B9A6942F02A
:1031F80010029A619B6903F010030393039B4FF439
:103208007073049302230593079304A9074802F0F7
:10321800BDF8B9E7002C014000340140001002401D
:10322800000C01400008014000000140001001406E
:1032380010B596B000241294139414941594109415
:10324800119409940A940B940C940D940E940F9471
:103258002022214601A80CF02FFE3B483B4B03607F
:103268004460846040F60F63C36004614461802356
:10327800836105F007FD00284BD14FF4805312936A
:1032880012A9314806F0B0F8002845D12E4805F0BB
:1032980051FD002843D100231093119310A92A4807
:1032A80009F01AFB00283DD16023099300220A92F5
:1032B8000B920C920D920E920F9209A9224805F0DA
:1032C80082FE002831D1042209A91F4805F07BFE9F
:1032D80070BB082209A91C4805F075FE58BB0C22D2
:1032E80009A9194805F06FFE40BB0023019302931A
:1032F8000393049305934FF400520692089301A98F
:10330800114809F027FBE0B90F48FFF72FFF16B067
:1033180010BDFFF7A1FBB0E7FFF79EFBB6E7FFF78D
:103328009BFBB8E7FFF798FBBEE7FFF795FBCAE7FB
:10333800FFF792FBCDE7FFF78FFBD0E7FFF78CFB9A
:10334800D3E7FFF789FBDFE7B4050020002C014035
:1033580010B596B0002412941394149415941094F4
:10336800119409940A940B940C940D940E940F9450
:103378002022214601A80CF09FFD3B483B4B0360EF
:103388004460846040F60F63C36004614461802335
:10339800836105F077FC00284BD14FF480531293DA
:1033A80012A9314806F020F8002845D12E4805F02A
:1033B800C1FC002843D100231093119310A92A4877
:1033C80009F08AFA00283DD16023099300220A9265
:1033D8000B920C920D920E920F9209A9224805F0B9
:1033E800F2FD002831D1042209A91F4805F0EBFDA0
:1033F80070BB082209A91C4805F0E5FD58BB0C2242
:1034080009A9194805F0DFFD40BB00230193029389
:103418000393049305934FF400520692089301A96D
:10342800114809F097FAE0B90F48FFF79FFE16B068
:1034380010BDFFF711FBB0E7FFF70EFBB6E7FFF78C
:103448000BFBB8E7FFF708FBBEE7FFF705FBCAE78A
:10345800FFF702FBCDE7FFF7FFFAD0E7FFF7FCFA2B
:10346800D3E7FFF7F9FADFE74C0400200034014006
:1034780003680A4A934203D0094A934207D0704727
:1034880002F56442936923F400639361704702F57F
:103498005C42936923F400539361F0E7002C0140E8
:1034A8000034014008B50368B3F1804F09D01D4AC4
:1034B800934215D01C4A93421DD01C4A934225D0F2
:1034C80008BD1B4AD36923F00103D3614FF40041BF
:1034D800184802F077F80821174802F073F8EFE768
:1034E80002F50332D36923F00203D361C0211148E6
:1034F80002F068F8E4E702F50232D36923F0040326
:10350800D361C0210C4802F05DF8D9E702F5013219
:10351800D36923F00803D3610321064802F052F867
:10352800CEE700BF0004004000080040000C004047
:103538000010024000080140000C014008B50A488C
:103548000A4B03604FF4E133436000238360C36098
:1035580003610C2242618361C36109F04DFB00B92C
:1035680008BDFFF779FAFBE7840600200038014020
:1035780070B586B000230293039304930593026801
:10358800334B9A4201D006B070BD044603F5584348
:103598009A6942F480429A619A6902F480420092E0
:1035A800009A9A6942F004029A619B6903F0040345
:1035B8000193019B4FF400730293022303930323A7
:1035C8000593244E02A9304601F0E0FE4FF48063D3
:1035D800029300250395049502A9304601F0D6FE12
:1035E8001D481E4B03601023436085608023C36021
:1035F8000561456185614FF40053C36100F0C4FA69
:10360800F8B9154BA3635C621548164B0360002399
:10361800436083608022C2600361436183614FF429
:103628000053C36100F0B0FA70B90D4BE3635C62FC
:1036380000221146252000F0EDF9252000F0FAF9C6
:10364800A1E7FFF709FADCE7FFF706FAEDE700BFA5
:1036580000380140000801404006002044000240B4
:10366800FC0500205800024002680D4B9A4200D029
:10367800704710B504460B4A936923F4804393615D
:103688004FF4C061084801F09DFFA06B00F0C6FA36
:10369800E06B00F0C3FA252000F0DAF910BD00BF96
:1036A800003801400010024000080140FFF774FB99
:1036B8000B480C490C4A002302E0D458C450043388
:1036C800C4188C42F9D3094A094C002301E013605D
:1036D8000432A242FBD30CF0E9FCFFF7F1F9704782
:1036E80000000020E4010020C03E0108E80100209D
:1036F80044080020FEE770477047000010B5064BED
:103708004FF0FF321A6100241C61DA60DC60FFF7B9
:10371800F3FF204610BD00BF0010024010B504465C
:103728000E4B1A784FF47A73B3FBF2F30C4A106815
:10373800B0FBF3F000F094F968B90F2C01D901201F
:103748000AE0002221464FF0FF3000F063F9054BF4
:103758001C60002000E0012010BD00BF1400002004
:10376800100000201800002008B5074A136843F02D
:1037780010031360032000F03BF90F20FFF7CEFF82
:10378800FFF730FA002008BD00200240034A116804
:10379800034B1B780B441360704700BFCC06002016
:1037A80014000020014B1868704700BFCC060020A9
:1037B800014B1868704700BF1800002010B5084B6F
:1037C8001C78844201D1002010BD1870054B186880
:1037D800FFF7A4FF0028F7D0014B1C70F4E700BFE7
:1037E8001400002018000020014B1878704700BF13
:1037F8001400002038B50446FFF7D4FF0546B4F19D
:10380800FF3F02D0044B1B781C44FFF7CBFF401B43
:10381800A042FAD338BD00BF140000204FF0E022C8
:10382800136923F00203136170474FF0E022136914
:1038380043F002031361704700487047000A010112
:10384800014B1868000C7047002004E0024B186810
:10385800C0F30B00704700BF002004E0014BD3F811
:10386800E807704700F0FF1F014BD3F8EC077047DB
:1038780000F0FF1F014BD3F8F007704700F0FF1F5F
:10388800024A536843F0010353607047002004E084
:10389800024A536823F0010353607047002004E094
:1038A800024A536843F0020353607047002004E063
:1038B800024A536823F0020353607047002004E073
:1038C800024A536843F0040353607047002004E041
:1038D800024A536823F0040353607047002004E051
:1038E80000280CDB00F01F02400901239340203020
:1038F800034A42F82030BFF34F8FBFF36F8F7047F2
:1039080000E100E0002808DB0901C9B200F16040CD
:1039180000F5614080F80013704700F00F000901BE
:10392800C9B2014B1954704714ED00E0002807DBB9
:1039380000F1604000F5614090F80003000970470D
:1039480000F00F00014B185C0009704714ED00E00F
:1039580000B500F00700C0F1070CBCF1040F28BF48
:103968004FF0040C031D062B0FD9C31E4FF0FF3E6A
:103978000EFA0CF021EA000199400EFA03FE22EA41
:103988000E0241EA02005DF804FB0023EEE710B5E1
:1039980001F00701C1F1070CBCF1040F28BF4FF07B
:1039A800040C0C1D062C0FD9033920FA01F44FF032
:1039B800FF3E0EFA0CFC24EA0C0414600EFA01FE19
:1039C80020EA0E00186010BD0021EEE7BFF34F8F0C
:1039D8000549CA6802F4E062044B1343CB60BFF3A5
:1039E8004F8F00BFFDE700BF00ED00E00400FA05BF
:1039F800074AD36823F4E0631B041B0C000200F49D
:103A0800E060034343F0BF6343F40033D36070477F
:103A180000ED00E010B50446054BD868C0F302205D
:103A2800FFF796FF01462046FFF76CFF10BD00BF69
:103A380000ED00E0002807DB00F01F024009012329
:103A48009340024A42F82030704700BF00E100E08E
:103A580008B5FFF745FF08BD08B5FFF7B7FF000039
:103A68000138B0F1807F0BD24FF0E0235861054A4E
:103A7800F02182F823100020986107221A6170470C
:103A88000120704700ED00E0024BD868C0F3022027
:103A9800704700BF00ED00E070B50C4615461E46A5
:103AA800FFF744FF33462A462146FFF770FF70BDF3
:103AB800002808DB00F01F02400901239340403032
:103AC800014A42F82030704700E100E000280BDB93
:103AD80043094033054A52F8233000F01F0023FA07
:103AE80000F000F0010070470020704700E100E09E
:103AF800002808DB00F01F024009012393406030D2
:103B0800014A42F82030704700E100E000280BDB52
:103B180043098033054A52F8233000F01F0023FA86
:103B280000F000F0010070470020704700E100E05D
:103B3800042806D04FF0E022136923F00403136130
:103B480070474FF0E022136943F004031361704794
:103B5800704708B5FFF7FCFF08BD30B40124056CB9
:103B6800AC40C56B6C60046863604368102B05D07B
:103B7800036899600368DA6030BC704703689A602C
:103B88000368D960F8E70000002838D010B402466E
:103B980001681C4B994227D81B4B0B441B48A0FBC0
:103BA80003031B099B001364194BD363022382F898
:103BB800213008686FF30D10536894682343D46864
:103BC8002343146923435469234394692343D469E1
:103BD800234303430B6000209063012382F82130C4
:103BE80082F8200010BC70470A4B0B440748A0FB22
:103BF80003031B099B001364074BD363D6E701201B
:103C0800704700BF07040240F8FFFDBFCDCCCCCC05
:103C180000000240F8FBFDBF0004024003460028F4
:103C280036D001680A6822F001020A6001680022A1
:103C38000A6001684A6001688A600168CA600168B0
:103C4800144A914219D8144A0A441449A1FB021291
:103C5800120992000264124AC263186CD96B0122DD
:103C680082404A6000209862D8621863586398635B
:103C780083F8210083F8200070470A4A0A4407495C
:103C8800A1FB0212120992000264074AC263E4E728
:103C98000120704707040240F8FFFDBFCDCCCCCC13
:103CA80000000240F8FBFDBF0004024070B5044666
:103CB80090F82000012820D0012084F8200094F8F2
:103CC8002100C0B2012804D0002384F8203002204B
:103CD80070BD022084F821000025A563266830689D
:103CE80020F0010030602046FFF737FF2268136894
:103CF80043F0010313602846EAE70220E8E738B5F5
:103D0800044690F82000012832D0012084F82000D1
:103D180094F82100C0B2012804D0002384F8203090
:103D2800022038BD022084F821000020A063256805
:103D3800286820F0010028602046FFF70EFFE36A9C
:103D48005BB12268136843F00E031360226813689E
:103D580043F0010313600020E3E72268136823F0AF
:103D6800040313602268136843F00A031360EDE745
:103D78000220D6E7034690F82120D2B2022A06D0C4
:103D880004228263002280F8202001207047016805
:103D98000A6822F00E020A6001680A6822F001022D
:103DA8000A60026CC06B012101FA02F2426083F8DA
:103DB8002110002083F820007047000008B590F813
:103DC8002130DBB2022B03D004238363012008BD1A
:103DD8000268136823F00E0313600268136823F067
:103DE8000103136003684C4A93424ED9783A9342D0
:103DF80024D01432934230D0143293422FD014324C
:103E080093422FD0143293422FD0143293422FD0A2
:103E1800143293422FD002F5627293422ED014329C
:103E280093422DD0143293422CD01432934202D0B4
:103E38004FF4803203E04FF4805200E00122374B08
:103E48005A60012380F82130002380F82030436B2A
:103E5800002B5ED098470020B9E71022EFE74FF417
:103E68008072ECE74FF48052E9E74FF48032E6E7DE
:103E78004FF48012E3E74FF08072E0E70122DEE7BB
:103E88001022DCE74FF48072D9E7254A934224D008
:103E98001432934225D01432934224D014329342E0
:103EA80024D01432934224D01432934224D01432B2
:103EB800934224D002F56272934223D01432934283
:103EC80022D01432934221D01432934202D04FF4BC
:103ED800803203E04FF4805200E00122114B5A6017
:103EE800AFE71022FAE74FF48072F7E74FF48052F9
:103EF800F4E74FF48032F1E74FF48012EEE74FF029
:103F08008072EBE70122E9E71022E7E74FF48072BD
:103F1800E4E700205BE700BF8000024000040240A5
:103F280008000240000002402DE9F843044690F8DA
:103F38002130DBB2022B07D004238363002380F8EF
:103F480020300120BDE8F8838846164603681A68C1
:103F580012F0200F25D161BBA14A934251D01432EF
:103F6800934253D01432934252D01432934252D0D7
:103F78001432934252D01432934252D014329342A4
:103F880052D002F56272934251D01432934250D00B
:103F9800143293424FD01432934207D04FF4003773
:103FA80030E04FF4807383630120CBE74FF4005770
:103FB80028E08B4A934241D01432934240D01432C5
:103FC80093423FD0143293423FD0143293423FD0B1
:103FD800143293423FD0143293423FD002F56272BA
:103FE80093423ED0143293423DD0143293423CD097
:103FF8001432934202D04FF4802703E04FF48047F5
:1040080000E00227FFF7CEFB814640E02027F9E7D2
:104018004FF40077F6E74FF40057F3E74FF4003713
:10402800F0E74FF40017EDE74FF00077EAE70227D3
:10403800E8E72027E6E74FF40077E3E70427E1E71E
:104048004027DFE74FF48067DCE74FF48047D9E784
:104058004FF48027D6E74FF48007D3E74FF0806707
:10406800D0E70427CEE74027CCE74FF48067C9E7BD
:104078004FF4004300E008231A4214BF0123002331
:10408800002B40F09D80B6F1FF3F40F0B1802368DF
:10409800544DAB4240F2BF80534A12683A420CBFBB
:1040A80001250025002D00F0BD804E4A93423FD9DE
:1040B80002F5607212684A498B42DCD014318B4297
:1040C8001ED014318B421DD014318B421DD01431B7
:1040D8008B421DD014318B421DD014318B421DD020
:1040E80001F562718B421CD014318B421BD0143104
:1040F8008B421AD014318B42BAD04FF40023BBE75D
:104108008023B9E74FF40063B6E74FF40043B3E701
:104118004FF40023B0E74FF40003ADE74FF000631E
:10412800AAE70823A8E78023A6E74FF40063A3E7DC
:104138002E4A12682A498B4224D014318B4227D048
:1041480014318B4226D014318B4226D014318B4245
:1041580026D014318B4226D014318B4226D001F55B
:1041680062718B4225D014318B4224D014318B429A
:1041780023D014318B4202D04FF4002303E04FF4D4
:10418800004300E008231A4214BF0123002377E705
:104198008023F8E74FF40063F5E74FF40043F2E7B4
:1041A8004FF40023EFE74FF40003ECE74FF0006310
:1041B800E9E70823E7E78023E5E74FF40063E2E750
:1041C800236CE26B012000FA03F35360A36B0343F3
:1041D800A36384F82100002384F82030B2E600BFEE
:1041E8000800024080000240000402400000024033
:1041F80036B1FFF7D7FAA0EB0900B0427FF647AF18
:10420800A36B43F02003A363012084F8210000235B
:1042180084F8203096E6934A12683A420CBF01258A
:1042280000253FE7B8F1000F40F091808E4A934295
:1042380049D9783A934224D0143293422BD014327D
:1042480093422AD0143293422AD0143293422AD06D
:10425800143293422AD0143293422AD002F5627261
:10426800934229D01432934228D01432934227D053
:104278001432934202D04FF4003303E04FF400535A
:1042880000E00223794A5360012384F8213000209A
:1042980084F8200056E62023F4E74FF40073F1E792
:1042A8004FF40053EEE74FF40033EBE74FF40013FD
:1042B800E8E74FF00073E5E70223E3E72023E1E7AF
:1042C8004FF40073DEE76A4A934224D014329342D3
:1042D80025D01432934224D01432934224D014327D
:1042E800934224D01432934224D01432934224D0DF
:1042F80002F56272934223D01432934222D01432D0
:10430800934221D01432934202D04FF4003303E099
:104318004FF4005300E00223524A5360B4E72023CD
:10432800FAE74FF40073F7E74FF40053F4E74FF45C
:104338000033F1E74FF40013EEE74FF00073EBE7BB
:104348000223E9E72023E7E74FF40073E4E7464A4E
:10435800934243D9783A934224D01432934225D0D9
:104368001432934224D01432934224D0143293420C
:1043780024D01432934224D01432934224D002F52C
:104388006272934223D01432934222D01432934261
:1043980021D01432934202D04FF4802303E04FF42B
:1043A800804300E00423314A536070E74023FAE772
:1043B8004FF48063F7E74FF48043F4E74FF480232A
:1043C800F1E74FF48003EEE74FF08063EBE7042357
:1043D800E9E74023E7E74FF48063E4E7244A9342A0
:1043E80024D01432934225D01432934224D014326C
:1043F800934224D01432934224D01432934224D0CE
:104408001432934224D002F56272934223D01432BC
:10441800934222D01432934221D01432934202D0D4
:104428004FF4802303E04FF4804300E004230D4A57
:1044380053602CE74023FAE74FF48063F7E74FF423
:104448008043F4E74FF48023F1E74FF48003EEE76D
:104458004FF08063EBE70423E9E74023E7E74FF4F5
:104468008063E4E70000024080000240000402404C
:104478000800024038B5C36B1A6804682568016CE7
:1044880004238B40134200F09B8015F0040F00F0CA
:104498009780236813F0200F03D1236823F00403C7
:1044A800236003689A4A934246D9783A934224D0C3
:1044B8001432934228D01432934227D014329342B4
:1044C80027D01432934227D01432934227D0143283
:1044D800934227D002F56272934226D01432934257
:1044E80025D01432934224D01432934202D04FF490
:1044F800802203E04FF4804200E00422854B5A609A
:10450800C36A03B1984738BD4022F7E74FF4806289
:10451800F4E74FF48042F1E74FF48022EEE74FF4DE
:104528008002EBE74FF08062E8E70422E6E74022EA
:10453800E4E74FF48062E1E7774A934224D01432EB
:10454800934225D01432934224D01432934224D07B
:104558001432934224D01432934224D0143293421A
:1045680024D002F56272934223D01432934222D0AF
:104578001432934221D01432934202D04FF4802255
:1045880003E04FF4804200E00422644B5A60B7E72E
:104598004022FAE74FF48062F7E74FF48042F4E7ED
:1045A8004FF48022F1E74FF48002EEE74FF080628B
:1045B800EBE70422E9E74022E7E74FF48062E4E70B
:1045C80002238B40134200F0AB8015F0020F00F07D
:1045D800A780236813F0200F06D1236823F00A036D
:1045E8002360012380F821300368494A93424BD95C
:1045F800783A934224D0143293422DD01432934205
:104608002CD0143293422CD0143293422CD0143232
:1046180093422CD0143293422CD002F5627293420A
:104628002BD0143293422AD01432934229D0143218
:10463800934202D04FF4003203E04FF4005200E0FE
:104648000222344B5A60002380F82030836A002B02
:104658003FF459AF984756E72022F2E74FF400722B
:10466800EFE74FF40052ECE74FF40032E9E74FF47C
:104678000012E6E74FF00072E3E70222E1E72022AA
:10468800DFE74FF40072DCE7234A934224D0143268
:10469800934225D01432934224D01432934224D02A
:1046A8001432934224D01432934224D014329342C9
:1046B80024D002F56272934223D01432934222D05E
:1046C8001432934221D01432934202D04FF4003274
:1046D80003E04FF4005200E00222104B5A60B2E7A8
:1046E8002022FAE74FF40072F7E74FF40052F4E79C
:1046F8004FF40032F1E74FF40012EEE74FF000728A
:10470800EBE70222E9E72022E7E74FF40072E4E74B
:1047180080000240000402400800024000000240FD
:1047280008238B4013423FF4EEAE15F0080F3FF418
:10473800EAAE236823F00E032360026CC16B0123E9
:1047480003FA02F24A60836380F82130002380F87C
:104758002030036B002B3FF4D6AE9847D3E600BF5A
:10476800034690F8200001281ED0012083F820007D
:1047780093F82100C0B2012804D00120002283F858
:10478800202070470329F9D8DFE801F00205080B5B
:104798009A620846F2E7DA620020EFE71A6300201F
:1047A800ECE75A630020E9E702207047034690F8D7
:1047B8002020012A26D0012280F8202090F821000C
:1047C800C0B2904204D00120002283F82020704714
:1047D8000429F9D8DFE801F003070A0D10000022C8
:1047E8009A620846F0E70020D862EDE700201863D7
:1047F800EAE700205863E7E700209862D862186368
:104808005863E1E70220704790F821007047806BF9
:1048180070470000002860D0002960D070B40B6891
:10482800036003F01F020120904013F0007F15D0B1
:104838008C6814F0010F24D02A4DAC680443AC6096
:104848008C6814F0020F22D0264DEC680443EC600B
:104858000C6804F0C06CBCF1C06F1ED04B6813F03C
:10486800010F2DD01F4A1368034313604B6813F0E0
:10487800020F2BD01B4A536803435360002070BCBF
:104888007047184DAC6824EA0004AC60D8E7154DB1
:10489800EC6824EA0004EC60DAE79208124E02326F
:1048A80056F8224003F003039B000F259D4024EA9D
:1048B8000504CD6805FA03F3234346F82230CDE713
:1048C800084A136823EA00031360CFE7054A5368D0
:1048D80023EA000353600020D1E70120704701203C
:1048E800704700BF0004014000000140002848D084
:1048F800002948D010B404680C6004F01F0C012390
:1049080003FA0CF322480068184227D001224A60B3
:104918001F484068184203D0486840F002004860C9
:1049280000228A60CA6014F0007F2ED002F1804213
:1049380002F5823292681A4201D001228A60144A32
:10494800D2681A4203D08B6843F002038B6004F0EC
:10495800C063B3F1C06F04D0002017E000224A60A2
:10496800D6E74FEA9C0202320A4B53F8222004F0A1
:1049780003039B0022FA03F303F00F03CB6000202C
:1049880004E00120704701207047002010BC7047E8
:104998000004014000000140002837D010B58446CB
:1049A800046804F01F00012383401A4A11686FEA63
:1049B800030E21EA03011160516821EA03035360E1
:1049C800DCF8003013F0007F22D093680EEA03036E
:1049D8009360D3680EEA0303D360DCF8003003F079
:1049E800C063B3F1C06F01D0002012E080080A490B
:1049F800023051F8203004F00304A4000F22A24032
:104A080023EA020341F82030002002E00120704729
:104A1800002010BD00040140000001400346084684
:104A280009B95A6070470120704710B10160002031
:104A3800704701207047000008B5036803F01F02A3
:104A480001239340044A52691A4204D0024A53612E
:104A5800436803B1984708BD00040140036803F0A8
:104A68001F0301229A40024948691040D840704704
:104A780000040140026802F01F0201239340014A2A
:104A88005361704700040140026802F01F020123CD
:104A98009340014A1361704700040140044B00220F
:104AA800DA61044A136943F0010313610180704716
:104AB800D006002000200240194BDB6813F01003D9
:104AC80005D0184AD36943F00203D3611023144A6E
:104AD800D26812F0040F06D01249CA6942F00102E6
:104AE800CA6143F004030E4AD26912F0010F09D0DB
:104AF8000C49CA6942F00402CA610949CA6922F02C
:104B08000102CA6140F20112934202D0044AD36002
:104B18007047034AD36923F00103D361704700BF8C
:104B280000200240D006002038B5844608461446C6
:104B38001D46124A136943F4A0531361104B996040
:104B4800C3E90445BCF1010F0CD0BCF1020F0ED033
:104B58000B4B05221A7004225A60A1B2FFF79EFF80
:104B6800002038BD03221A7001225A60F5E7044B71
:104B780004221A7002225A60EFE700BF00200240A8
:104B8800D006002070477047F8B5514BDB6813F02A
:104B9800100F04D14E4BDB6813F0040F0BD04D4CB3
:104BA800A5684FF0FF33A360FFF786FF2846FFF79D
:104BB800EAFF00232370464BDB6813F0200F2BD04D
:104BC800434B2022DA60434B1B782BB3414B1B78B5
:104BD800DBB2012B2DD03F4B1B78DBB2022B47D029
:104BE8003C4B5A68013A5A605B68002B4CD1394BF0
:104BF8001B78DBB2032B5FD0364B1B78DBB2042B60
:104C08005FD0344B98680638FFF7BCFF314B4FF044
:104C1800FF329A6000221A702E4B1B7843B92C4B36
:104C28001A6922F007021A611A6922F4A0521A615D
:104C3800F8BD284B5A68013A5A605B687BB1254C2D
:104C4800A068FFF79FFFA06800F50060A060204AF9
:104C5800136923F00203136100F00EFBDCE71D4B20
:104C68004FF0FF30986000221A70FFF78BFFD3E7F0
:104C7800174A136923F0040313610020FFF782FF2A
:104C8800144B00221A70C7E7124B9A6802329A60D6
:104C98009868D3E90467340C44EA07443D0CC3E937
:104CA80004450B490A6922F001020A61D3E9042389
:104CB80091B2FFF7F3FEAFE7064B9868FFF762FF84
:104CC800A4E7044B98680238FFF75CFF9EE700BF33
:104CD80000200240D00600200A4B1B6913F0800F09
:104CE8000BD0084B084A5A6002F188325A601B6997
:104CF80013F0800F03D10020704700207047012077
:104D0800704700BF0020024023016745034A13692A
:104D180043F0800313610020704700BF0020024069
:104D2800074B1B6913F4007F07D1054B054A9A60AE
:104D380002F188329A60002070470120704700BF56
:104D48000020024023016745034A136923F40073D6
:104D580013610020704700BF0020024008B5FEF72D
:104D68007BFE08BD014BD869704700BFD006002004
:104D780038B50446FEF716FD0546164BDB6813F0FA
:104D8800010F0AD0B4F1FF3FF7D024B1FEF70AFDB6
:104D9800401BA042F1D903201BE00E4BDB6813F047
:104DA800200F02D00B4B2022DA600A4BDB6813F08D
:104DB800100F0BD1074BDB6913F0010F06D1054B20
:104DC800DB6813F0040F01D1002002E0FFF774FE46
:104DD800012038BD002002402DE9F8431E46244B2F
:104DE8001B7E012B41D004460F469046204B0122E2
:104DF8001A764CF25030FFF7BBFF034678BB012C04
:104E080008D0022C03D04FF004091C4607E04FF0ED
:104E18000209FAE74FF00109F7E70134E4B24C451B
:104E28001DD22101C1F12002A1F1200328FA01F1CC
:104E380006FA02F2114326FA03F3194389B207EB83
:104E48004400FFF72BFE4CF25030FFF791FF094B5F
:104E58001D6925F001051D6103460028DDD0044ABF
:104E6800002111761846BDE8F8830223FAE700BF4F
:104E7800D006002000200240064B0022DA61064BD3
:104E88001A6942F004021A611A6942F040021A6172
:104E9800704700BFD006002000200240014B186A6E
:104EA800704700BF00200240044BDB6913F0020F7B
:104EB80001D000207047A520704700BF00200240A5
:104EC800024BD869C0F38200704700BF002002403F
:104ED80038B505464CF25030FFF74AFF00B138BDEF
:104EE800124B0022DA61124C236943F0200323613C
:104EF800236943F0400323614CF25030FFF738FF39
:104F0800236923F0200323610028E8D1236943F0B3
:104F180010032361074B1D804CF25030FFF728FF28
:104F2800236923F010032361D9E700BFD0060020CE
:104F38000020024000F8FF1F38B504464CF25030FC
:104F4800FFF716FF00B138BD0A4B0022DA610A4D9F
:104F58002B6943F010032B6144F08800074B5880FD
:104F68004CF25030FFF704FF2B6923F010032B613C
:104F7800E9E700BFD00600200020024000F8FF1F2C
:104F880070B505460C464CF25030FFF7F1FE00B103
:104F980070BD094B0022DA61084E336943F01003F3
:104FA80033612C804CF25030FFF7E2FE336923F076
:104FB80010033361ECE700BFD00600200020024058
:104FC80038B5FFF771FFC5B24CF25030FFF7D0FE8D
:104FD80000B138BD0C4B0022DA610C4C236943F058
:104FE80020032361236943F0400323614CF25030CE
:104FF800FFF7BEFE236923F0200323610028E8D1D0
:105008002846FFF765FFE4E7D006002000200240AD
:10501800F8B50446FFF742FF20EA0400C5B2C0F322
:105028000727C0F30746040E4CF25030FFF7A0FEE6
:10503800034608B11846F8BD234B0022DA61FFF792
:10504800BFFF03460028F5D120490A6942F0100243
:105058000A61FF2D0ED123B9FF2F15D123B9FF2ED9
:105068001CD10BB9FF2C23D118490A6922F0100270
:105078000A61DFE7164B1A8915401D814CF2503042
:10508800FFF776FE0346E6E7114B5A8917405F8122
:105098004CF25030FFF76CFE0346DFE70C4B9A8961
:1050A80016409E814CF25030FFF762FE0346D8E767
:1050B800074BDA8904EA0200D8814CF25030FFF736
:1050C80057FE0346D0E700BFD0060020002002406C
:1050D80000F8FF1FF8B50446FFF7E0FE2043C5B20D
:1050E800C0F30727C0F30746040E4CF25030FFF711
:1050F8003FFE034608B11846F8BD254B0022DA6189
:10510800FFF75EFF03460028F5D122490A6942F0FD
:1051180010020A61FF2D0ED123B9FF2F16D123B932
:10512800FF2E1ED10BB9FF2C26D11A490A6922F08D
:1051380010020A61DFE7184A13899BB22B431381D7
:105148004CF25030FFF714FE0346E5E7124A538944
:105158009BB23B4353814CF25030FFF709FE0346A4
:10516800DDE70D4A93899BB2334393814CF250306B
:10517800FFF7FEFD0346D5E7074AD3899BB22343D1
:10518800D3814CF25030FFF7F3FD0346CDE700BF63
:10519800D00600200020024000F8FF1F254B1B7E90
:1051A800012B44D010B50446224B01221A7603681D
:1051B80013F0010F0ED04368934207D08068FFF7C1
:1051C80089FF40B11B4B00221A7613E08068FFF775
:1051D8001FFFF6E70120236813F0020F0BD12368A5
:1051E80013F0040F10D1236813F0080F15D1114BD9
:1051F80000221A7610BD207CFFF76AFE0028EED048
:105208000C4B00221A76F5E7607CFFF795FE002824
:10521800E9D0084B00221A76ECE7217E6069FFF797
:10522800AFFE0028E3D0034B00221A76E2E7022003
:10523800704700BFD006002010B50446072303605E
:10524800FFF72CFEA060FFF72FFE2074FFF738FE53
:10525800607410BD064B984204D0064BD869C0F361
:1052680087407047034BD869C0F38720704700BF59
:1052780004F8FF1F00200240064B0022DA61064BAB
:105288001A6942F002021A6158611A6942F0400232
:105298001A617047D006002000200240264B1B7E72
:1052A800012B46D070B505460E46234B01221A76CF
:1052B8000368022B20D04CF25030FFF759FD90BB09
:1052C8004FF0FF333360AC680121EA68AB6803EB49
:1052D800C223A34228D92046FFF7CEFF4CF2503014
:1052E800FFF746FD154A136923F0020313610146CF
:1052F800B8B904F50064E8E74CF25030FFF738FD20
:1053080008B1012110E00120FFF7B6FD4CF2503042
:10531800FFF72EFD0146094A136923F004031361C0
:1053280002E0346000E00121034B00221A760846AF
:1053380070BD022108467047D006002000200240B8
:1053480010B5104B1B78DBB903F0FF040E4A136944
:1053580043F4A05313610368022B0AD0094B0122BE
:105368001A70C2685A6080689860FFF785FF204607
:1053780010BD044B02221A704068FFF77DFDF6E766
:105388000124F4E7D00600200020024070B582B066
:105398000024A446ABE0854DAB4214D00CD8A5F54B
:1053A8008015AB420FD005F57025AB420BD0A5F5A3
:1053B8008015AB4210D106E07D4DAB4203D005F518
:1053C8008035AB4208D18B68002B5AD0012B53D0C3
:1053D8004261082400E0CC68BEF1FF0F53D80646AE
:1053E8004FEA8C0233680F25954023EA050304FA37
:1053F80002F2134333604B6813F0805F75D06D4B36
:105408009A6942F001029A619B6903F001030193D2
:10541800019B4FEA9C02951C674B53F825600CF0E2
:105428000305AD000F23AB4026EA0306634B984201
:1054380030D003F58063984200F0968003F58063CE
:10544800984200F0938003F58063984200F09080C2
:1054580003F58063984200F08D8003F580639842DD
:1054680016D0062317E0CC680434B5E7CC680834B6
:10547800B2E7CC680C34AFE702610824ACE700243B
:10548800AAE70424A8E7061DACF108029200A9E7E0
:10549800052300E00023AB4033430232464D45F874
:1054A80022304B6813F4801F66D0454A936843EA5C
:1054B8000E0393604B6813F4001F63D0404AD3680F
:1054C80043EA0E03D3604B6813F4003F60D03C4AB4
:1054D800536843EA0E0353604B6813F4803F5DD072
:1054E800374A136843EA0E0313600CF1010C0B688A
:1054F80033FA0CF258D0012202FA0CF203EA020E37
:1055080032EA0303F1D14B68122B3FF644AF122B5A
:105518003FF662AF01A555F823F000BFCF5300084E
:10552800DF5300087554000887540008E153000849
:10553800E1530008E1530008E1530008E153000873
:10554800E1530008E1530008E1530008E153000863
:10555800E1530008E1530008E1530008E153000853
:105568006F5400087B540008012394E7022392E754
:10557800032390E704238EE7114A936823EA0E0376
:10558800936097E70E4AD36823EA0E03D3609AE73D
:105598000B4A536823EA0E0353609DE7084A1368D1
:1055A80023EA0E031360A0E702B070BD00002210CA
:1055B80000003110001002400000014000080140C6
:1055C8000004014000227EE04FF0050E01E04FF09C
:1055D800000E0EFA04F4644552D0FF2B6BD8054632
:1055E8004FEA820E2C684FF00F0C0CFA0EFC24EADE
:1055F8000C044FF0040C0CFA0EFC44EA0C042C606A
:10560800C46824EA0303C360013231FA02F358D0B4
:10561800012393400B40F7D09708BD1C2F4C54F83A
:10562800255002F00304A4004FF00F0C0CFA04F606
:1056380006EA050C2A4DA842C9D005F58065A8429E
:1056480012D005F58065A84211D005F58065A842FD
:1056580010D005F58065A8420FD005F58065A842F1
:10566800B2D04FF0060EB4E74FF0010EB1E74FF09D
:10567800020EAEE74FF0030EABE74FF0040EA8E7BB
:10568800184C256825EA03052560656825EA0305A1
:105698006560E56825EA0305E560A56825EA030570
:1056A800A560DFF838C0BC1C5CF8245025EA060564
:1056B8004CF8245091E7051DA2F1080E4FEA8E0E12
:1056C80090E7F0BD013231FA02F305D0012393408F
:1056D8000B40F7D0F0B59FE7704700BF00000140CE
:1056E80000080140000401408368194201D00120EC
:1056F8007047002070470AB10161704709040161D1
:105708007047C36801EA030221EA030141EA024142
:105718000161704782B04FF480330193019B0B43C2
:105728000193019B83618161019B8361836901937B
:10573800836913F4803F02D0002002B07047012033
:10574800FBE7704708B5054B5B69034200D108BD0C
:10575800024B5861FFF7F5FFF9E700BF000401406D
:10576800034A136823F07F03084303431360704719
:1057780000000140024A136843F080031360704739
:1057880000000140024A136823F080031360704749
:105798000000014020BF00BF70470000044B1A6999
:1057A80042F080521A611A6922F080521A617047D9
:1057B80000100240014B01221A62704700000E429D
:1057C800014B00221A62704700000E421E4A1368FD
:1057D80023F0E00301680B4313601C4B5A6822F462
:1057E80080325A601A6822F480321A60DA6822F429
:1057F8008032DA609A6822F480329A60436813F43F
:10580800803F04D0114A136843F48033136043681F
:1058180013F4003F04D00D4A536843F480335360B7
:10582800436813F0010F04D0084A936843F48033A7
:105838009360436813F0020F04D0044AD36843F41A
:105848008033D360704700BF0070004000040140FF
:10585800014B01221A61704700000E42014B0022E1
:105868001A61704700000E4290FAA0F0B0FA80F07A
:10587800024B03449B0001221A607047208083106A
:1058880090FAA0F0B0FA80F0024B03449B0000228B
:105898001A60704720808310064A136923F00403B6
:1058A8001361012903D040BF20BF20BF704730BF1C
:1058B800704700BF00ED00E008B50F4A136823F0F9
:1058C80002031360136823F00103034313600B4AB8
:1058D800136943F004031361012906D130BF074A55
:1058E800136923F00403136108BD40BFFFF752FF9B
:1058F800FFF750FFF3E700BF0070004000ED00E045
:10590800054A136843F002031360044A136943F01D
:105918000403136130BF70470070004000ED00E0E1
:10592800024A136943F002031361704700ED00E077
:10593800024A136923F002031361704700ED00E087
:10594800024A136943F010031361704700ED00E049
:10595800024A136923F010031361704700ED00E059
:105968007047000008B5064B5B6913F4803F00D10F
:1059780008BDFFF7F5FF024B4FF480325A61F7E795
:105988000004014082B0084B1B68084AA2FB0323AD
:105998005B0A00FB03F3019300BF019B5A1E0192AF
:1059A800002BF9D102B0704710000020D34D6210CF
:1059B80070B5FDF7F7FE0446364A136843F0010355
:1059C8001360344B1B6813F0020F07D1FDF7EAFE92
:1059D800001B0228F5D90324204670BD2D4D2B68E5
:1059E80023F0F80343F080032B60FDF7DBFE044649
:1059F80000236B60274B5B6813F00C0F08D0FDF792
:105A0800D1FE001B41F288339842F3D90324E3E71F
:105A1800214B224A1A60224B1868FDF77FFE044684
:105A280008B10124D8E7FDF7BDFE0546194A1368F9
:105A380023F080731360174B1B6813F0007F06D0A8
:105A4800FDF7B0FE401B0228F5D90324C4E7114E28
:105A580000237360FDF7A6FE0546336823F4102380
:105A680033600C4B1B6813F4003F06D0FDF79AFE19
:105A7800401B6428F5D90324AEE7064B1A6822F4C4
:105A880080221A605A6A42F080725A6200229A6032
:105A9800A2E700BF001002401000002000127A00A8
:105AA80018000020002800F0F18170B582B004468B
:105AB800036813F0010F2CD0994B5B6803F00C03BB
:105AC800042B1DD0964B5B6803F00C03082B12D0F7
